{
  "contractName": "Escrow",
  "abi": [
    {
      "inputs": [
        {
          "internalType": "address",
          "name": "_eip20",
          "type": "address"
        },
        {
          "internalType": "address payable",
          "name": "_canceler",
          "type": "address"
        },
        {
          "internalType": "uint256",
          "name": "_duration",
          "type": "uint256"
        },
        {
          "internalType": "address[]",
          "name": "_handlers",
          "type": "address[]"
        }
      ],
      "stateMutability": "nonpayable",
      "type": "constructor"
    },
    {
      "anonymous": false,
      "inputs": [
        {
          "indexed": true,
          "internalType": "uint256",
          "name": "_txId",
          "type": "uint256"
        },
        {
          "indexed": false,
          "internalType": "uint256",
          "name": "_bulkCount",
          "type": "uint256"
        }
      ],
      "name": "BulkTransfer",
      "type": "event"
    },
    {
      "anonymous": false,
      "inputs": [
        {
          "indexed": false,
          "internalType": "string",
          "name": "_url",
          "type": "string"
        },
        {
          "indexed": false,
          "internalType": "string",
          "name": "_hash",
          "type": "string"
        }
      ],
      "name": "IntermediateStorage",
      "type": "event"
    },
    {
      "anonymous": false,
      "inputs": [
        {
          "indexed": false,
          "internalType": "string",
          "name": "manifest",
          "type": "string"
        },
        {
          "indexed": false,
          "internalType": "string",
          "name": "hash",
          "type": "string"
        }
      ],
      "name": "Pending",
      "type": "event"
    },
    {
      "inputs": [
        {
          "internalType": "address",
          "name": "",
          "type": "address"
        }
      ],
      "name": "areTrustedHandlers",
      "outputs": [
        {
          "internalType": "bool",
          "name": "",
          "type": "bool"
        }
      ],
      "stateMutability": "view",
      "type": "function"
    },
    {
      "inputs": [],
      "name": "bulkPaid",
      "outputs": [
        {
          "internalType": "bool",
          "name": "",
          "type": "bool"
        }
      ],
      "stateMutability": "view",
      "type": "function"
    },
    {
      "inputs": [],
      "name": "canceler",
      "outputs": [
        {
          "internalType": "address payable",
          "name": "",
          "type": "address"
        }
      ],
      "stateMutability": "view",
      "type": "function"
    },
    {
      "inputs": [],
      "name": "duration",
      "outputs": [
        {
          "internalType": "uint256",
          "name": "",
          "type": "uint256"
        }
      ],
      "stateMutability": "view",
      "type": "function"
    },
    {
      "inputs": [],
      "name": "eip20",
      "outputs": [
        {
          "internalType": "address",
          "name": "",
          "type": "address"
        }
      ],
      "stateMutability": "view",
      "type": "function"
    },
    {
      "inputs": [
        {
          "internalType": "uint256",
          "name": "",
          "type": "uint256"
        }
      ],
      "name": "finalAmounts",
      "outputs": [
        {
          "internalType": "uint256",
          "name": "",
          "type": "uint256"
        }
      ],
      "stateMutability": "view",
      "type": "function"
    },
    {
      "inputs": [],
      "name": "finalResultsHash",
      "outputs": [
        {
          "internalType": "string",
          "name": "",
          "type": "string"
        }
      ],
      "stateMutability": "view",
      "type": "function"
    },
    {
      "inputs": [],
      "name": "finalResultsUrl",
      "outputs": [
        {
          "internalType": "string",
          "name": "",
          "type": "string"
        }
      ],
      "stateMutability": "view",
      "type": "function"
    },
    {
      "inputs": [],
      "name": "launcher",
      "outputs": [
        {
          "internalType": "address",
          "name": "",
          "type": "address"
        }
      ],
      "stateMutability": "view",
      "type": "function"
    },
    {
      "inputs": [],
      "name": "manifestHash",
      "outputs": [
        {
          "internalType": "string",
          "name": "",
          "type": "string"
        }
      ],
      "stateMutability": "view",
      "type": "function"
    },
    {
      "inputs": [],
      "name": "manifestUrl",
      "outputs": [
        {
          "internalType": "string",
          "name": "",
          "type": "string"
        }
      ],
      "stateMutability": "view",
      "type": "function"
    },
    {
      "inputs": [],
      "name": "recordingOracle",
      "outputs": [
        {
          "internalType": "address",
          "name": "",
          "type": "address"
        }
      ],
      "stateMutability": "view",
      "type": "function"
    },
    {
      "inputs": [],
      "name": "recordingOracleStake",
      "outputs": [
        {
          "internalType": "uint256",
          "name": "",
          "type": "uint256"
        }
      ],
      "stateMutability": "view",
      "type": "function"
    },
    {
      "inputs": [],
      "name": "reputationOracle",
      "outputs": [
        {
          "internalType": "address",
          "name": "",
          "type": "address"
        }
      ],
      "stateMutability": "view",
      "type": "function"
    },
    {
      "inputs": [],
      "name": "reputationOracleStake",
      "outputs": [
        {
          "internalType": "uint256",
          "name": "",
          "type": "uint256"
        }
      ],
      "stateMutability": "view",
      "type": "function"
    },
    {
      "inputs": [],
      "name": "status",
      "outputs": [
        {
          "internalType": "enum Escrow.EscrowStatuses",
          "name": "",
          "type": "uint8"
        }
      ],
      "stateMutability": "view",
      "type": "function"
    },
    {
      "inputs": [],
      "name": "getBalance",
      "outputs": [
        {
          "internalType": "uint256",
          "name": "",
          "type": "uint256"
        }
      ],
      "stateMutability": "view",
      "type": "function"
    },
    {
      "inputs": [
        {
          "internalType": "address[]",
          "name": "_handlers",
          "type": "address[]"
        }
      ],
      "name": "addTrustedHandlers",
      "outputs": [],
      "stateMutability": "nonpayable",
      "type": "function"
    },
    {
      "inputs": [
        {
          "internalType": "address",
          "name": "_reputationOracle",
          "type": "address"
        },
        {
          "internalType": "address",
          "name": "_recordingOracle",
          "type": "address"
        },
        {
          "internalType": "uint256",
          "name": "_reputationOracleStake",
          "type": "uint256"
        },
        {
          "internalType": "uint256",
          "name": "_recordingOracleStake",
          "type": "uint256"
        },
        {
          "internalType": "string",
          "name": "_url",
          "type": "string"
        },
        {
          "internalType": "string",
          "name": "_hash",
          "type": "string"
        }
      ],
      "name": "setup",
      "outputs": [],
      "stateMutability": "nonpayable",
      "type": "function"
    },
    {
      "inputs": [],
      "name": "abort",
      "outputs": [],
      "stateMutability": "nonpayable",
      "type": "function"
    },
    {
      "inputs": [],
      "name": "cancel",
      "outputs": [
        {
          "internalType": "bool",
          "name": "",
          "type": "bool"
        }
      ],
      "stateMutability": "nonpayable",
      "type": "function"
    },
    {
      "inputs": [],
      "name": "complete",
      "outputs": [],
      "stateMutability": "nonpayable",
      "type": "function"
    },
    {
      "inputs": [
        {
          "internalType": "string",
          "name": "_url",
          "type": "string"
        },
        {
          "internalType": "string",
          "name": "_hash",
          "type": "string"
        }
      ],
      "name": "storeResults",
      "outputs": [],
      "stateMutability": "nonpayable",
      "type": "function"
    },
    {
      "inputs": [
        {
          "internalType": "address[]",
          "name": "_recipients",
          "type": "address[]"
        },
        {
          "internalType": "uint256[]",
          "name": "_amounts",
          "type": "uint256[]"
        },
        {
          "internalType": "string",
          "name": "_url",
          "type": "string"
        },
        {
          "internalType": "string",
          "name": "_hash",
          "type": "string"
        },
        {
          "internalType": "uint256",
          "name": "_txId",
          "type": "uint256"
        }
      ],
      "name": "bulkPayOut",
      "outputs": [
        {
          "internalType": "bool",
          "name": "",
          "type": "bool"
        }
      ],
      "stateMutability": "nonpayable",
      "type": "function"
    }
  ],
  "bytecode": "0x60806040523480156200001157600080fd5b50604051620038bd380380620038bd833981810160405260808110156200003757600080fd5b81019080805190602001909291908051906020019092919080519060200190929190805160405193929190846401000000008211156200007657600080fd5b838201915060208201858111156200008d57600080fd5b8251866020820283011164010000000082111715620000ab57600080fd5b8083526020830192505050908051906020019060200280838360005b83811015620000e4578082015181840152602081019050620000c7565b5050505090500160405250505083600660006101000a81548173ffffffffffffffffffffffffffffffffffffffff021916908373ffffffffffffffffffffffffffffffffffffffff16021790555060008060006101000a81548160ff021916908360058111156200015157fe5b0217905550620001704283620002c360201b62002f191790919060201c565b600b8190555033600260006101000a81548173ffffffffffffffffffffffffffffffffffffffff021916908373ffffffffffffffffffffffffffffffffffffffff16021790555082600360006101000a81548173ffffffffffffffffffffffffffffffffffffffff021916908373ffffffffffffffffffffffffffffffffffffffff1602179055506001600e60008573ffffffffffffffffffffffffffffffffffffffff1673ffffffffffffffffffffffffffffffffffffffff16815260200190815260200160002060006101000a81548160ff0219169083151502179055506001600e60003373ffffffffffffffffffffffffffffffffffffffff1673ffffffffffffffffffffffffffffffffffffffff16815260200190815260200160002060006101000a81548160ff021916908315150217905550620002b9816200034c60201b60201c565b505050506200047e565b60008082840190508381101562000342576040517f08c379a000000000000000000000000000000000000000000000000000000000815260040180806020018281038252601b8152602001807f536166654d6174683a206164646974696f6e206f766572666c6f77000000000081525060200191505060405180910390fd5b8091505092915050565b600e60003373ffffffffffffffffffffffffffffffffffffffff1673ffffffffffffffffffffffffffffffffffffffff16815260200190815260200160002060009054906101000a900460ff16620003f0576040517f08c379a000000000000000000000000000000000000000000000000000000000815260040180806020018281038252602b81526020018062003892602b913960400191505060405180910390fd5b60008090505b81518110156200047a576001600e60008484815181106200041357fe5b602002602001015173ffffffffffffffffffffffffffffffffffffffff1673ffffffffffffffffffffffffffffffffffffffff16815260200190815260200160002060006101000a81548160ff0219169083151502179055508080600101915050620003f6565b5050565b613404806200048e6000396000f3fe608060405234801561001057600080fd5b50600436106101585760003560e01c80639753e432116100c3578063cc06cfa91161007c578063cc06cfa9146109ef578063d65281f014610a11578063ea8a1af014610a53578063f17171e914610a75578063f926657e14610ad1578063fad844c114610c7757610158565b80639753e43214610566578063992d454d146105b05780639c48b102146105fa5780639eb262f31461067d578063b63d1a0014610735578063bb19d62f146109d157610158565b8063200d2ed211610115578063200d2ed2146102ce578063337f3f32146102fa57806335a063b41461037d57806343aba9c214610387578063522e11771461040a578063697e4b871461041457610158565b80630529198f1461015d5780630f46c9aa1461017b5780630fb5a6b4146101fe57806312065fe01461021c57806316eebd1e1461023a578063196214d314610284575b600080fd5b610165610cc1565b6040518082815260200191505060405180910390f35b610183610cc7565b6040518080602001828103825283818151815260200191508051906020019080838360005b838110156101c35780820151818401526020810190506101a8565b50505050905090810190601f1680156101f05780820380516001836020036101000a031916815260200191505b509250505060405180910390f35b610206610d65565b6040518082815260200191505060405180910390f35b610224610d6b565b6040518082815260200191505060405180910390f35b610242610e4c565b604051808273ffffffffffffffffffffffffffffffffffffffff1673ffffffffffffffffffffffffffffffffffffffff16815260200191505060405180910390f35b61028c610e72565b604051808273ffffffffffffffffffffffffffffffffffffffff1673ffffffffffffffffffffffffffffffffffffffff16815260200191505060405180910390f35b6102d6610e98565b604051808260058111156102e657fe5b60ff16815260200191505060405180910390f35b610302610eaa565b6040518080602001828103825283818151815260200191508051906020019080838360005b83811015610342578082015181840152602081019050610327565b50505050905090810190601f16801561036f5780820380516001836020036101000a031916815260200191505b509250505060405180910390f35b610385610f48565b005b61038f611191565b6040518080602001828103825283818151815260200191508051906020019080838360005b838110156103cf5780820151818401526020810190506103b4565b50505050905090810190601f1680156103fc5780820380516001836020036101000a031916815260200191505b509250505060405180910390f35b61041261122f565b005b6105646004803603604081101561042a57600080fd5b810190808035906020019064010000000081111561044757600080fd5b82018360208201111561045957600080fd5b8035906020019184600183028401116401000000008311171561047b57600080fd5b91908080601f016020809104026020016040519081016040528093929190818152602001838380828437600081840152601f19601f820116905080830192505050505050509192919290803590602001906401000000008111156104de57600080fd5b8201836020820111156104f057600080fd5b8035906020019184600183028401116401000000008311171561051257600080fd5b91908080601f016020809104026020016040519081016040528093929190818152602001838380828437600081840152601f19601f82011690508083019250505050505050919291929050505061147c565b005b61056e61176b565b604051808273ffffffffffffffffffffffffffffffffffffffff1673ffffffffffffffffffffffffffffffffffffffff16815260200191505060405180910390f35b6105b8611791565b604051808273ffffffffffffffffffffffffffffffffffffffff1673ffffffffffffffffffffffffffffffffffffffff16815260200191505060405180910390f35b6106026117b7565b6040518080602001828103825283818151815260200191508051906020019080838360005b83811015610642578082015181840152602081019050610627565b50505050905090810190601f16801561066f5780820380516001836020036101000a031916815260200191505b509250505060405180910390f35b6107336004803603602081101561069357600080fd5b81019080803590602001906401000000008111156106b057600080fd5b8201836020820111156106c257600080fd5b803590602001918460208302840111640100000000831117156106e457600080fd5b919080806020026020016040519081016040528093929190818152602001838360200280828437600081840152601f19601f820116905080830192505050505050509192919290505050611855565b005b6109b7600480360360a081101561074b57600080fd5b810190808035906020019064010000000081111561076857600080fd5b82018360208201111561077a57600080fd5b8035906020019184602083028401116401000000008311171561079c57600080fd5b919080806020026020016040519081016040528093929190818152602001838360200280828437600081840152601f19601f820116905080830192505050505050509192919290803590602001906401000000008111156107fc57600080fd5b82018360208201111561080e57600080fd5b8035906020019184602083028401116401000000008311171561083057600080fd5b919080806020026020016040519081016040528093929190818152602001838360200280828437600081840152601f19601f8201169050808301925050505050505091929192908035906020019064010000000081111561089057600080fd5b8201836020820111156108a257600080fd5b803590602001918460018302840111640100000000831117156108c457600080fd5b91908080601f016020809104026020016040519081016040528093929190818152602001838380828437600081840152601f19601f8201169050808301925050505050505091929192908035906020019064010000000081111561092757600080fd5b82018360208201111561093957600080fd5b8035906020019184600183028401116401000000008311171561095b57600080fd5b91908080601f016020809104026020016040519081016040528093929190818152602001838380828437600081840152601f19601f82011690508083019250505050505050919291929080359060200190929190505050611982565b604051808215151515815260200191505060405180910390f35b6109d96122ef565b6040518082815260200191505060405180910390f35b6109f76122f5565b604051808215151515815260200191505060405180910390f35b610a3d60048036036020811015610a2757600080fd5b8101908080359060200190929190505050612308565b6040518082815260200191505060405180910390f35b610a5b612329565b604051808215151515815260200191505060405180910390f35b610ab760048036036020811015610a8b57600080fd5b81019080803573ffffffffffffffffffffffffffffffffffffffff1690602001909291905050506126d9565b604051808215151515815260200191505060405180910390f35b610c75600480360360c0811015610ae757600080fd5b81019080803573ffffffffffffffffffffffffffffffffffffffff169060200190929190803573ffffffffffffffffffffffffffffffffffffffff169060200190929190803590602001909291908035906020019092919080359060200190640100000000811115610b5857600080fd5b820183602082011115610b6a57600080fd5b80359060200191846001830284011164010000000083111715610b8c57600080fd5b91908080601f016020809104026020016040519081016040528093929190818152602001838380828437600081840152601f19601f82011690508083019250505050505050919291929080359060200190640100000000811115610bef57600080fd5b820183602082011115610c0157600080fd5b80359060200191846001830284011164010000000083111715610c2357600080fd5b91908080601f016020809104026020016040519081016040528093929190818152602001838380828437600081840152601f19601f8201169050808301925050505050505091929192905050506126f9565b005b610c7f612daf565b604051808273ffffffffffffffffffffffffffffffffffffffff1673ffffffffffffffffffffffffffffffffffffffff16815260200191505060405180910390f35b60055481565b600a8054600181600116156101000203166002900480601f016020809104026020016040519081016040528092919081815260200182805460018160011615610100020316600290048015610d5d5780601f10610d3257610100808354040283529160200191610d5d565b820191906000526020600020905b815481529060010190602001808311610d4057829003601f168201915b505050505081565b600b5481565b6000600660009054906101000a900473ffffffffffffffffffffffffffffffffffffffff1673ffffffffffffffffffffffffffffffffffffffff166370a08231306040518263ffffffff1660e01b8152600401808273ffffffffffffffffffffffffffffffffffffffff1673ffffffffffffffffffffffffffffffffffffffff16815260200191505060206040518083038186803b158015610e0c57600080fd5b505afa158015610e20573d6000803e3d6000fd5b505050506040513d6020811015610e3657600080fd5b8101908080519060200190929190505050905090565b600260009054906101000a900473ffffffffffffffffffffffffffffffffffffffff1681565b600660009054906101000a900473ffffffffffffffffffffffffffffffffffffffff1681565b6000809054906101000a900460ff1681565b60088054600181600116156101000203166002900480601f016020809104026020016040519081016040528092919081815260200182805460018160011615610100020316600290048015610f405780601f10610f1557610100808354040283529160200191610f40565b820191906000526020600020905b815481529060010190602001808311610f2357829003601f168201915b505050505081565b600e60003373ffffffffffffffffffffffffffffffffffffffff1673ffffffffffffffffffffffffffffffffffffffff16815260200190815260200160002060009054906101000a900460ff16611007576040517f08c379a000000000000000000000000000000000000000000000000000000000815260040180806020018281038252601b8152602001807f416464726573732063616c6c696e67206e6f742074727573746564000000000081525060200191505060405180910390fd5b6004600581111561101457fe5b6000809054906101000a900460ff16600581111561102e57fe5b14156110a2576040517f08c379a000000000000000000000000000000000000000000000000000000000815260040180806020018281038252601f8152602001807f457363726f7720696e20436f6d706c657465207374617475732073746174650081525060200191505060405180910390fd5b600360058111156110af57fe5b6000809054906101000a900460ff1660058111156110c957fe5b141561113d576040517f08c379a000000000000000000000000000000000000000000000000000000000815260040180806020018281038252601b8152602001807f457363726f7720696e205061696420737461747573207374617465000000000081525060200191505060405180910390fd5b6000611147610d6b565b1461115657611154612329565b505b600360009054906101000a900473ffffffffffffffffffffffffffffffffffffffff1673ffffffffffffffffffffffffffffffffffffffff16ff5b60098054600181600116156101000203166002900480601f0160208091040260200160405190810160405280929190818152602001828054600181600116156101000203166002900480156112275780601f106111fc57610100808354040283529160200191611227565b820191906000526020600020905b81548152906001019060200180831161120a57829003601f168201915b505050505081565b42600b54116112a6576040517f08c379a00000000000000000000000000000000000000000000000000000000081526004018080602001828103825260108152602001807f436f6e747261637420657870697265640000000000000000000000000000000081525060200191505060405180910390fd5b600060019054906101000a900473ffffffffffffffffffffffffffffffffffffffff1673ffffffffffffffffffffffffffffffffffffffff163373ffffffffffffffffffffffffffffffffffffffff16148061134b5750600e60003373ffffffffffffffffffffffffffffffffffffffff1673ffffffffffffffffffffffffffffffffffffffff16815260200190815260200160002060009054906101000a900460ff165b6113bd576040517f08c379a000000000000000000000000000000000000000000000000000000000815260040180806020018281038252601e8152602001807f416464726573732063616c6c696e67206973206e6f742074727573746564000081525060200191505060405180910390fd5b600360058111156113ca57fe5b6000809054906101000a900460ff1660058111156113e457fe5b14611457576040517f08c379a00000000000000000000000000000000000000000000000000000000081526004018080602001828103825260188152602001807f457363726f77206e6f7420696e2050616964207374617465000000000000000081525060200191505060405180910390fd5b60046000806101000a81548160ff0219169083600581111561147557fe5b0217905550565b600e60003373ffffffffffffffffffffffffffffffffffffffff1673ffffffffffffffffffffffffffffffffffffffff16815260200190815260200160002060009054906101000a900460ff1661153b576040517f08c379a000000000000000000000000000000000000000000000000000000000815260040180806020018281038252601b8152602001807f416464726573732063616c6c696e67206e6f742074727573746564000000000081525060200191505060405180910390fd5b42600b54116115b2576040517f08c379a00000000000000000000000000000000000000000000000000000000081526004018080602001828103825260108152602001807f436f6e747261637420657870697265640000000000000000000000000000000081525060200191505060405180910390fd5b600160058111156115bf57fe5b6000809054906101000a900460ff1660058111156115d957fe5b14806116095750600260058111156115ed57fe5b6000809054906101000a900460ff16600581111561160757fe5b145b61165e576040517f08c379a000000000000000000000000000000000000000000000000000000000815260040180806020018281038252602d815260200180613308602d913960400191505060405180910390fd5b7fb20e0717219840fd5684a80bec782e8babb56ea224f677561b791a61192605c18282604051808060200180602001838103835285818151815260200191508051906020019080838360005b838110156116c55780820151818401526020810190506116aa565b50505050905090810190601f1680156116f25780820380516001836020036101000a031916815260200191505b50838103825284818151815260200191508051906020019080838360005b8381101561172b578082015181840152602081019050611710565b50505050905090810190601f1680156117585780820380516001836020036101000a031916815260200191505b5094505050505060405180910390a15050565b600160009054906101000a900473ffffffffffffffffffffffffffffffffffffffff1681565b600360009054906101000a900473ffffffffffffffffffffffffffffffffffffffff1681565b60078054600181600116156101000203166002900480601f01602080910402602001604051908101604052809291908181526020018280546001816001161561010002031660029004801561184d5780601f106118225761010080835404028352916020019161184d565b820191906000526020600020905b81548152906001019060200180831161183057829003601f168201915b505050505081565b600e60003373ffffffffffffffffffffffffffffffffffffffff1673ffffffffffffffffffffffffffffffffffffffff16815260200190815260200160002060009054906101000a900460ff166118f7576040517f08c379a000000000000000000000000000000000000000000000000000000000815260040180806020018281038252602b815260200180613358602b913960400191505060405180910390fd5b60008090505b815181101561197e576001600e600084848151811061191857fe5b602002602001015173ffffffffffffffffffffffffffffffffffffffff1673ffffffffffffffffffffffffffffffffffffffff16815260200190815260200160002060006101000a81548160ff02191690831515021790555080806001019150506118fd565b5050565b6000600e60003373ffffffffffffffffffffffffffffffffffffffff1673ffffffffffffffffffffffffffffffffffffffff16815260200190815260200160002060009054906101000a900460ff16611a43576040517f08c379a000000000000000000000000000000000000000000000000000000000815260040180806020018281038252601b8152602001807f416464726573732063616c6c696e67206e6f742074727573746564000000000081525060200191505060405180910390fd5b6000611a4d610d6b565b1415611ac1576040517f08c379a000000000000000000000000000000000000000000000000000000000815260040180806020018281038252601b8152602001807f454950323020636f6e7472616374206f7574206f662066756e6473000000000081525060200191505060405180910390fd5b60006005811115611ace57fe5b6000809054906101000a900460ff166005811115611ae857fe5b1415611b5c576040517f08c379a000000000000000000000000000000000000000000000000000000000815260040180806020018281038252601f8152602001807f457363726f7720696e204c61756e63686564207374617475732073746174650081525060200191505060405180910390fd5b60036005811115611b6957fe5b6000809054906101000a900460ff166005811115611b8357fe5b1415611bf7576040517f08c379a000000000000000000000000000000000000000000000000000000000815260040180806020018281038252601b8152602001807f457363726f7720696e205061696420737461747573207374617465000000000081525060200191505060405180910390fd5b42600b5411611c6e576040517f08c379a00000000000000000000000000000000000000000000000000000000081526004018080602001828103825260108152602001807f436f6e747261637420657870697265640000000000000000000000000000000081525060200191505060405180910390fd5b8451865114611cc8576040517f08c379a000000000000000000000000000000000000000000000000000000000815260040180806020018281038252602b815260200180613383602b913960400191505060405180910390fd5b606463ffffffff16865110611d45576040517f08c379a00000000000000000000000000000000000000000000000000000000081526004018080602001828103825260138152602001807f546f6f206d616e7920726563697069656e74730000000000000000000000000081525060200191505060405180910390fd5b6000611d4f610d6b565b90506000600d60006101000a81548160ff021916908315150217905550600080905060005b8751811015611da257878181518110611d8957fe5b6020026020010151820191508080600101915050611d74565b506b033b2e3c9fd0803ce80000008110611e24576040517f08c379a00000000000000000000000000000000000000000000000000000000081526004018080602001828103825260138152602001807f42756c6b2076616c756520746f6f20686967680000000000000000000000000081525060200191505060405180910390fd5b80821015611e4557600d60009054906101000a900460ff16925050506122e6565b6000808651141580611e5957506000875114155b90508015611e90578660099080519060200190611e77929190613241565b5085600a9080519060200190611e8e929190613241565b505b600080611e9c8a612dd5565b915091506000600660009054906101000a900473ffffffffffffffffffffffffffffffffffffffff16905060008090505b8c51811015611fce578173ffffffffffffffffffffffffffffffffffffffff1663a9059cbb8e8381518110611efe57fe5b6020026020010151600c8481548110611f1357fe5b90600052602060002001546040518363ffffffff1660e01b8152600401808373ffffffffffffffffffffffffffffffffffffffff1673ffffffffffffffffffffffffffffffffffffffff16815260200182815260200192505050602060405180830381600087803b158015611f8757600080fd5b505af1158015611f9b573d6000803e3d6000fd5b505050506040513d6020811015611fb157600080fd5b810190808051906020019092919050505050806001019050611ecd565b50600c6000611fdd91906132c1565b8073ffffffffffffffffffffffffffffffffffffffff1663a9059cbb600060019054906101000a900473ffffffffffffffffffffffffffffffffffffffff16856040518363ffffffff1660e01b8152600401808373ffffffffffffffffffffffffffffffffffffffff1673ffffffffffffffffffffffffffffffffffffffff16815260200182815260200192505050602060405180830381600087803b15801561208657600080fd5b505af115801561209a573d6000803e3d6000fd5b505050506040513d60208110156120b057600080fd5b810190808051906020019092919050505080156121ad57508073ffffffffffffffffffffffffffffffffffffffff1663a9059cbb600160009054906101000a900473ffffffffffffffffffffffffffffffffffffffff16846040518363ffffffff1660e01b8152600401808373ffffffffffffffffffffffffffffffffffffffff1673ffffffffffffffffffffffffffffffffffffffff16815260200182815260200192505050602060405180830381600087803b15801561217157600080fd5b505af1158015612185573d6000803e3d6000fd5b505050506040513d602081101561219b57600080fd5b81019080805190602001909291905050505b600d60006101000a81548160ff0219169083151502179055506121ce610d6b565b9550600d60009054906101000a900460ff161561229457600160058111156121f257fe5b6000809054906101000a900460ff16600581111561220c57fe5b14156122365760026000806101000a81548160ff0219169083600581111561223057fe5b02179055505b60008614801561226a57506002600581111561224e57fe5b6000809054906101000a900460ff16600581111561226857fe5b145b156122935760036000806101000a81548160ff0219169083600581111561228d57fe5b02179055505b5b877f8ed71c3a6fb899bfe96968ade5a4119b380c0d642a775106eb80aa795450777e8d516040518082815260200191505060405180910390a2600d60009054906101000a900460ff1696505050505050505b95945050505050565b60045481565b600d60009054906101000a900460ff1681565b600c818154811061231557fe5b906000526020600020016000915090505481565b6000600e60003373ffffffffffffffffffffffffffffffffffffffff1673ffffffffffffffffffffffffffffffffffffffff16815260200190815260200160002060009054906101000a900460ff166123ea576040517f08c379a000000000000000000000000000000000000000000000000000000000815260040180806020018281038252601b8152602001807f416464726573732063616c6c696e67206e6f742074727573746564000000000081525060200191505060405180910390fd5b60006123f4610d6b565b1415612468576040517f08c379a000000000000000000000000000000000000000000000000000000000815260040180806020018281038252601b8152602001807f454950323020636f6e7472616374206f7574206f662066756e6473000000000081525060200191505060405180910390fd5b6004600581111561247557fe5b6000809054906101000a900460ff16600581111561248f57fe5b1415612503576040517f08c379a000000000000000000000000000000000000000000000000000000000815260040180806020018281038252601f8152602001807f457363726f7720696e20436f6d706c657465207374617475732073746174650081525060200191505060405180910390fd5b6003600581111561251057fe5b6000809054906101000a900460ff16600581111561252a57fe5b141561259e576040517f08c379a000000000000000000000000000000000000000000000000000000000815260040180806020018281038252601b8152602001807f457363726f7720696e205061696420737461747573207374617465000000000081525060200191505060405180910390fd5b6000600660009054906101000a900473ffffffffffffffffffffffffffffffffffffffff1673ffffffffffffffffffffffffffffffffffffffff1663a9059cbb600360009054906101000a900473ffffffffffffffffffffffffffffffffffffffff16612609610d6b565b6040518363ffffffff1660e01b8152600401808373ffffffffffffffffffffffffffffffffffffffff1673ffffffffffffffffffffffffffffffffffffffff16815260200182815260200192505050602060405180830381600087803b15801561267257600080fd5b505af1158015612686573d6000803e3d6000fd5b505050506040513d602081101561269c57600080fd5b8101908080519060200190929190505050905060056000806101000a81548160ff021916908360058111156126cd57fe5b02179055508091505090565b600e6020528060005260406000206000915054906101000a900460ff1681565b600e60003373ffffffffffffffffffffffffffffffffffffffff1673ffffffffffffffffffffffffffffffffffffffff16815260200190815260200160002060009054906101000a900460ff166127b8576040517f08c379a000000000000000000000000000000000000000000000000000000000815260040180806020018281038252601b8152602001807f416464726573732063616c6c696e67206e6f742074727573746564000000000081525060200191505060405180910390fd5b42600b541161282f576040517f08c379a00000000000000000000000000000000000000000000000000000000081526004018080602001828103825260108152602001807f436f6e747261637420657870697265640000000000000000000000000000000081525060200191505060405180910390fd5b600073ffffffffffffffffffffffffffffffffffffffff168673ffffffffffffffffffffffffffffffffffffffff1614156128d2576040517f08c379a00000000000000000000000000000000000000000000000000000000081526004018080602001828103825260208152602001807f496e76616c6964206f72206d697373696e6720746f6b656e207370656e64657281525060200191505060405180910390fd5b600073ffffffffffffffffffffffffffffffffffffffff168573ffffffffffffffffffffffffffffffffffffffff161415612975576040517f08c379a00000000000000000000000000000000000000000000000000000000081526004018080602001828103825260208152602001807f496e76616c6964206f72206d697373696e6720746f6b656e207370656e64657281525060200191505060405180910390fd5b600061298a8486612f1990919063ffffffff16565b90506000811015801561299e575060648111155b612a10576040517f08c379a00000000000000000000000000000000000000000000000000000000081526004018080602001828103825260138152602001807f5374616b65206f7574206f6620626f756e64730000000000000000000000000081525060200191505060405180910390fd5b60006005811115612a1d57fe5b6000809054906101000a900460ff166005811115612a3757fe5b14612a8d576040517f08c379a00000000000000000000000000000000000000000000000000000000081526004018080602001828103825260238152602001806133356023913960400191505060405180910390fd5b86600060016101000a81548173ffffffffffffffffffffffffffffffffffffffff021916908373ffffffffffffffffffffffffffffffffffffffff16021790555085600160006101000a81548173ffffffffffffffffffffffffffffffffffffffff021916908373ffffffffffffffffffffffffffffffffffffffff1602179055506001600e60008060019054906101000a900473ffffffffffffffffffffffffffffffffffffffff1673ffffffffffffffffffffffffffffffffffffffff1673ffffffffffffffffffffffffffffffffffffffff16815260200190815260200160002060006101000a81548160ff0219169083151502179055506001600e6000600160009054906101000a900473ffffffffffffffffffffffffffffffffffffffff1673ffffffffffffffffffffffffffffffffffffffff1673ffffffffffffffffffffffffffffffffffffffff16815260200190815260200160002060006101000a81548160ff02191690831515021790555084600481905550836005819055508260079080519060200190612c26929190613241565b508160089080519060200190612c3d929190613241565b5060016000806101000a81548160ff02191690836005811115612c5c57fe5b02179055507f8ec464ac0c8e44e17130cd1ffb09967fa6f2c33339289678a59ea0112cfc2aa960076008604051808060200180602001838103835285818154600181600116156101000203166002900481526020019150805460018160011615610100020316600290048015612d135780601f10612ce857610100808354040283529160200191612d13565b820191906000526020600020905b815481529060010190602001808311612cf657829003601f168201915b5050838103825284818154600181600116156101000203166002900481526020019150805460018160011615610100020316600290048015612d965780601f10612d6b57610100808354040283529160200191612d96565b820191906000526020600020905b815481529060010190602001808311612d7957829003601f168201915b505094505050505060405180910390a150505050505050565b600060019054906101000a900473ffffffffffffffffffffffffffffffffffffffff1681565b6000806000809050600080905060005b8551811015612f0b576000612e2b6064612e1d898581518110612e0457fe5b6020026020010151600454612fa190919063ffffffff16565b61302790919063ffffffff16565b90506000612e6a6064612e5c8a8681518110612e4357fe5b6020026020010151600554612fa190919063ffffffff16565b61302790919063ffffffff16565b90506000612ea682612e98858c8881518110612e8257fe5b602002602001015161307190919063ffffffff16565b61307190919063ffffffff16565b9050612ebb8387612f1990919063ffffffff16565b9550612ed08286612f1990919063ffffffff16565b9450600c8190806001815401808255809150506001900390600052602060002001600090919091909150555050508080600101915050612de5565b508181935093505050915091565b600080828401905083811015612f97576040517f08c379a000000000000000000000000000000000000000000000000000000000815260040180806020018281038252601b8152602001807f536166654d6174683a206164646974696f6e206f766572666c6f77000000000081525060200191505060405180910390fd5b8091505092915050565b600080831415612fb45760009050613021565b6000828402905082848281612fc557fe5b041461301c576040517f08c379a00000000000000000000000000000000000000000000000000000000081526004018080602001828103825260218152602001806133ae6021913960400191505060405180910390fd5b809150505b92915050565b600061306983836040518060400160405280601a81526020017f536166654d6174683a206469766973696f6e206279207a65726f0000000000008152506130bb565b905092915050565b60006130b383836040518060400160405280601e81526020017f536166654d6174683a207375627472616374696f6e206f766572666c6f770000815250613181565b905092915050565b60008083118290613167576040517f08c379a00000000000000000000000000000000000000000000000000000000081526004018080602001828103825283818151815260200191508051906020019080838360005b8381101561312c578082015181840152602081019050613111565b50505050905090810190601f1680156131595780820380516001836020036101000a031916815260200191505b509250505060405180910390fd5b50600083858161317357fe5b049050809150509392505050565b600083831115829061322e576040517f08c379a00000000000000000000000000000000000000000000000000000000081526004018080602001828103825283818151815260200191508051906020019080838360005b838110156131f35780820151818401526020810190506131d8565b50505050905090810190601f1680156132205780820380516001836020036101000a031916815260200191505b509250505060405180910390fd5b5060008385039050809150509392505050565b828054600181600116156101000203166002900490600052602060002090601f016020900481019282601f1061328257805160ff19168380011785556132b0565b828001600101855582156132b0579182015b828111156132af578251825591602001919060010190613294565b5b5090506132bd91906132e2565b5090565b50805460008255906000526020600020908101906132df91906132e2565b50565b61330491905b808211156133005760008160009055506001016132e8565b5090565b9056fe457363726f77206e6f7420696e2050656e64696e67206f72205061727469616c20737461747573207374617465457363726f77206e6f7420696e204c61756e6368656420737461747573207374617465416464726573732063616c6c696e672063616e6e6f742061646420747275737465642068616e646c657273416d6f756e74206f6620726563697069656e747320616e642076616c75657320646f6e2774206d61746368536166654d6174683a206d756c7469706c69636174696f6e206f766572666c6f77a2646970667358221220cd350a7b16c6e6c5cbc56cc28c9ae0a00b3f54129515a227456ed533e4dfc1d364736f6c63430006020033416464726573732063616c6c696e672063616e6e6f742061646420747275737465642068616e646c657273",
  "source": "pragma solidity 0.6.2;\n\nimport \"./HMTokenInterface.sol\";\nimport \"./SafeMath.sol\";\n\ncontract Escrow  {\n    using SafeMath for uint256;\n    event IntermediateStorage(string _url, string _hash);\n    event Pending(string manifest, string hash);\n    event BulkTransfer(uint256 indexed _txId, uint256 _bulkCount);\n    \n    enum EscrowStatuses {Launched, Pending, Partial, Paid, Complete, Cancelled}\n    EscrowStatuses public status;\n\n    address public reputationOracle;\n    address public recordingOracle;\n    address public launcher;\n    address payable public canceler;\n\n    uint256 public reputationOracleStake;\n    uint256 public recordingOracleStake;\n    uint256 private constant BULK_MAX_VALUE = 1000000000 * (10 ** 18);\n    uint32  private constant BULK_MAX_COUNT = 100;\n\n    address public eip20;\n\n    string public manifestUrl;\n    string public manifestHash;\n\n    string public finalResultsUrl;\n    string public finalResultsHash;\n\n    uint256 public duration;\n\n    uint256[] public finalAmounts;\n    bool public bulkPaid;\n\n    mapping(address => bool) public areTrustedHandlers;\n\n    constructor(\n        address _eip20,\n        address payable _canceler,\n        uint256 _duration,\n        address[] memory _handlers\n    ) public {\n        eip20 = _eip20;\n        status = EscrowStatuses.Launched;\n        duration = _duration.add(block.timestamp); // solhint-disable-line not-rely-on-time\n        launcher = msg.sender;\n        canceler = _canceler;\n        areTrustedHandlers[_canceler] = true;\n        areTrustedHandlers[msg.sender] = true;\n        addTrustedHandlers(_handlers);\n    }\n\n    function getBalance() public view returns (uint256) {\n        return HMTokenInterface(eip20).balanceOf(address(this));\n    }\n\n    function addTrustedHandlers(address[] memory _handlers) public {\n        require(areTrustedHandlers[msg.sender], \"Address calling cannot add trusted handlers\");\n        for (uint256 i = 0; i < _handlers.length; i++) {\n            areTrustedHandlers[_handlers[i]] = true;\n        }\n    }\n\n    // The escrower puts the Token in the contract without an agentless\n    // and assigsn a reputation oracle to payout the bounty of size of the\n    // amount specified\n    function setup(\n        address _reputationOracle,\n        address _recordingOracle,\n        uint256 _reputationOracleStake,\n        uint256 _recordingOracleStake,\n        string memory _url,\n        string memory _hash\n    ) public trusted notExpired\n    {\n        require(\n            _reputationOracle != address(0),\n            \"Invalid or missing token spender\"\n        );\n        require(\n            _recordingOracle != address(0),\n            \"Invalid or missing token spender\"\n        );\n        uint256 totalStake = _reputationOracleStake.add(_recordingOracleStake);\n        require(\n            totalStake >= 0 && totalStake <= 100,\n            \"Stake out of bounds\"\n        );\n        require(\n            status == EscrowStatuses.Launched,\n            \"Escrow not in Launched status state\"\n        );\n\n        reputationOracle = _reputationOracle;\n        recordingOracle = _recordingOracle;\n        areTrustedHandlers[reputationOracle] = true;\n        areTrustedHandlers[recordingOracle] = true;\n\n        reputationOracleStake = _reputationOracleStake;\n        recordingOracleStake = _recordingOracleStake;\n\n        manifestUrl = _url;\n        manifestHash = _hash;\n        status = EscrowStatuses.Pending;\n        emit Pending(manifestUrl, manifestHash);\n    }\n\n    function abort() trusted notComplete notPaid public {\n        if (getBalance() != 0) {\n            cancel();\n        }\n        selfdestruct(canceler);\n    }\n\n    function cancel() public trusted notBroke notComplete notPaid returns (bool) {\n        bool success = HMTokenInterface(eip20).transfer(canceler, getBalance());\n        status = EscrowStatuses.Cancelled;\n        return success;\n    }\n\n    function complete() public notExpired {\n        require(\n            msg.sender == reputationOracle || areTrustedHandlers[msg.sender],\n            \"Address calling is not trusted\"\n        );\n        require (status == EscrowStatuses.Paid, \"Escrow not in Paid state\");\n        status = EscrowStatuses.Complete;\n    }\n\n    function storeResults(string memory _url, string memory _hash) public trusted notExpired {\n        require(\n            status == EscrowStatuses.Pending ||\n                status == EscrowStatuses.Partial,\n            \"Escrow not in Pending or Partial status state\"\n        );\n        emit IntermediateStorage(_url, _hash);\n    }\n\n    function bulkPayOut(\n        address[] memory _recipients,\n        uint256[] memory _amounts,\n        string memory _url,\n        string memory _hash,\n        uint256 _txId\n    ) public trusted notBroke notLaunched notPaid notExpired returns (bool)\n    {\n        require(_recipients.length == _amounts.length, \"Amount of recipients and values don't match\");\n        require(_recipients.length < BULK_MAX_COUNT, \"Too many recipients\");\n\n        uint256 balance = getBalance();\n        bulkPaid = false;\n        uint256 aggregatedBulkAmount = 0;\n        for (uint256 i; i < _amounts.length; i++) {\n            aggregatedBulkAmount += _amounts[i];\n        }\n        require(aggregatedBulkAmount < BULK_MAX_VALUE, \"Bulk value too high\");\n\n        if (balance < aggregatedBulkAmount) {\n            return bulkPaid;\n        }\n\n        bool writeOnchain = bytes(_hash).length != 0 || bytes(_url).length != 0;\n        if (writeOnchain) {\n            // Be sure they are both zero if one of them is\n            finalResultsUrl = _url;\n            finalResultsHash = _hash;\n        }\n\n        (uint256 reputationOracleFee, uint256 recordingOracleFee) = finalizePayouts(_amounts);\n        HMTokenInterface token = HMTokenInterface(eip20);\n\n\n        for (uint i = 0; i < _recipients.length; ++i) {\n            token.transfer(_recipients[i], finalAmounts[i]);\n        }\n\n        delete finalAmounts;\n        bulkPaid = token.transfer(reputationOracle, reputationOracleFee) && token.transfer(recordingOracle, recordingOracleFee);\n\n        balance = getBalance();\n        if (bulkPaid) {\n            if (status == EscrowStatuses.Pending) {\n                status = EscrowStatuses.Partial;\n            }\n            if (balance == 0 && status == EscrowStatuses.Partial) {\n                status = EscrowStatuses.Paid;\n            }\n        }\n        emit BulkTransfer(_txId, _recipients.length);\n        return bulkPaid;\n    }\n\n    function finalizePayouts(uint256[] memory _amounts) internal returns (uint256, uint256) {\n        uint256 reputationOracleFee = 0;\n        uint256 recordingOracleFee = 0;\n        for (uint256 j; j < _amounts.length; j++) {\n            uint256 singleReputationOracleFee = reputationOracleStake\n                .mul(_amounts[j])\n                .div(100);\n            uint256 singleRecordingOracleFee = recordingOracleStake\n                .mul(_amounts[j])\n                .div(100);\n            uint256 amount = _amounts[j].sub(singleReputationOracleFee).sub(\n                singleRecordingOracleFee\n            );\n            reputationOracleFee = reputationOracleFee.add(\n                singleReputationOracleFee\n            );\n            recordingOracleFee = recordingOracleFee.add(\n                singleRecordingOracleFee\n            );\n            finalAmounts.push(amount);\n        }\n        return (reputationOracleFee, recordingOracleFee);\n    }\n\n    modifier trusted() {\n        require(areTrustedHandlers[msg.sender], \"Address calling not trusted\");\n        _;\n    }\n\n    modifier notBroke() {\n        require(getBalance() != 0, \"EIP20 contract out of funds\");\n        _;\n    }\n\n    modifier notComplete() {\n        require(\n            status != EscrowStatuses.Complete,\n            \"Escrow in Complete status state\"\n        );\n        _;\n    }\n\n    modifier notPaid() {\n        require(status != EscrowStatuses.Paid, \"Escrow in Paid status state\");\n        _;\n    }\n\n    modifier notLaunched() {\n        require(\n            status != EscrowStatuses.Launched,\n            \"Escrow in Launched status state\"\n        );\n        _;\n    }\n\n    modifier notExpired() {\n        require(duration > block.timestamp, \"Contract expired\"); // solhint-disable-line not-rely-on-time\n        _;\n    }\n}",
  "sourcePath": "/Users/dukagjinr/Desktop/hp_staking/blockchain/contracts/Escrow.sol",
  "compiler": {
    "name": "solc",
    "version": "0.6.2+commit.bacdbe57.Emscripten.clang"
  },
  "schemaVersion": "3.4.4",
  "updatedAt": "2022-08-14T18:25:59.034Z",
  "devdoc": {
    "methods": {}
  },
  "userdoc": {
    "methods": {}
  }
}