{
  "contractName": "EscrowFactory",
  "abi": [
    {
      "inputs": [
        {
          "internalType": "address",
          "name": "_eip20",
          "type": "address"
        }
      ],
      "stateMutability": "nonpayable",
      "type": "constructor"
    },
    {
      "anonymous": false,
      "inputs": [
        {
          "indexed": false,
          "internalType": "address",
          "name": "eip20",
          "type": "address"
        },
        {
          "indexed": false,
          "internalType": "address",
          "name": "escrow",
          "type": "address"
        }
      ],
      "name": "Launched",
      "type": "event"
    },
    {
      "inputs": [
        {
          "internalType": "address",
          "name": "",
          "type": "address"
        }
      ],
      "name": "balanceOf",
      "outputs": [
        {
          "internalType": "uint256",
          "name": "",
          "type": "uint256"
        }
      ],
      "stateMutability": "view",
      "type": "function"
    },
    {
      "inputs": [
        {
          "internalType": "uint256",
          "name": "",
          "type": "uint256"
        }
      ],
      "name": "candidateList",
      "outputs": [
        {
          "internalType": "address",
          "name": "",
          "type": "address"
        }
      ],
      "stateMutability": "view",
      "type": "function"
    },
    {
      "inputs": [],
      "name": "counter",
      "outputs": [
        {
          "internalType": "uint256",
          "name": "",
          "type": "uint256"
        }
      ],
      "stateMutability": "view",
      "type": "function"
    },
    {
      "inputs": [
        {
          "internalType": "address",
          "name": "_account",
          "type": "address"
        }
      ],
      "name": "currentBalance",
      "outputs": [
        {
          "internalType": "uint256",
          "name": "",
          "type": "uint256"
        }
      ],
      "stateMutability": "view",
      "type": "function"
    },
    {
      "inputs": [
        {
          "internalType": "address",
          "name": "",
          "type": "address"
        }
      ],
      "name": "deposits",
      "outputs": [
        {
          "internalType": "uint256",
          "name": "",
          "type": "uint256"
        }
      ],
      "stateMutability": "view",
      "type": "function"
    },
    {
      "inputs": [],
      "name": "eip20",
      "outputs": [
        {
          "internalType": "address",
          "name": "",
          "type": "address"
        }
      ],
      "stateMutability": "view",
      "type": "function"
    },
    {
      "inputs": [
        {
          "internalType": "address",
          "name": "",
          "type": "address"
        }
      ],
      "name": "escrowCounters",
      "outputs": [
        {
          "internalType": "uint256",
          "name": "",
          "type": "uint256"
        }
      ],
      "stateMutability": "view",
      "type": "function"
    },
    {
      "inputs": [],
      "name": "lastEscrow",
      "outputs": [
        {
          "internalType": "address",
          "name": "",
          "type": "address"
        }
      ],
      "stateMutability": "view",
      "type": "function"
    },
    {
      "inputs": [],
      "name": "owner",
      "outputs": [
        {
          "internalType": "address",
          "name": "",
          "type": "address"
        }
      ],
      "stateMutability": "view",
      "type": "function"
    },
    {
      "inputs": [
        {
          "internalType": "address",
          "name": "_account",
          "type": "address"
        }
      ],
      "name": "penalty",
      "outputs": [],
      "stateMutability": "nonpayable",
      "type": "function"
    },
    {
      "inputs": [
        {
          "internalType": "address",
          "name": "_account",
          "type": "address"
        }
      ],
      "name": "rewards",
      "outputs": [],
      "stateMutability": "nonpayable",
      "type": "function"
    },
    {
      "inputs": [
        {
          "internalType": "uint256",
          "name": "",
          "type": "uint256"
        }
      ],
      "name": "stakeholders",
      "outputs": [
        {
          "internalType": "address",
          "name": "",
          "type": "address"
        }
      ],
      "stateMutability": "view",
      "type": "function"
    },
    {
      "inputs": [],
      "name": "stakes",
      "outputs": [
        {
          "internalType": "uint256",
          "name": "",
          "type": "uint256"
        }
      ],
      "stateMutability": "view",
      "type": "function"
    },
    {
      "inputs": [],
      "name": "staking",
      "outputs": [],
      "stateMutability": "payable",
      "type": "function"
    },
    {
      "inputs": [
        {
          "internalType": "address",
          "name": "candidate",
          "type": "address"
        }
      ],
      "name": "totalVotesFor",
      "outputs": [
        {
          "internalType": "uint256",
          "name": "",
          "type": "uint256"
        }
      ],
      "stateMutability": "view",
      "type": "function"
    },
    {
      "inputs": [
        {
          "internalType": "address",
          "name": "candidate",
          "type": "address"
        }
      ],
      "name": "voteForCandidate",
      "outputs": [],
      "stateMutability": "nonpayable",
      "type": "function"
    },
    {
      "inputs": [
        {
          "internalType": "address",
          "name": "",
          "type": "address"
        }
      ],
      "name": "votesReceived",
      "outputs": [
        {
          "internalType": "uint256",
          "name": "",
          "type": "uint256"
        }
      ],
      "stateMutability": "view",
      "type": "function"
    },
    {
      "inputs": [
        {
          "internalType": "uint256",
          "name": "amount",
          "type": "uint256"
        }
      ],
      "name": "withdraw",
      "outputs": [],
      "stateMutability": "nonpayable",
      "type": "function"
    },
    {
      "inputs": [
        {
          "internalType": "address[]",
          "name": "trustedHandlers",
          "type": "address[]"
        }
      ],
      "name": "createEscrow",
      "outputs": [
        {
          "internalType": "address",
          "name": "",
          "type": "address"
        }
      ],
      "stateMutability": "nonpayable",
      "type": "function"
    },
    {
      "inputs": [
        {
          "internalType": "address",
          "name": "_child",
          "type": "address"
        }
      ],
      "name": "isChild",
      "outputs": [
        {
          "internalType": "bool",
          "name": "",
          "type": "bool"
        }
      ],
      "stateMutability": "view",
      "type": "function"
    },
    {
      "inputs": [
        {
          "internalType": "address",
          "name": "_address",
          "type": "address"
        }
      ],
      "name": "hasEscrow",
      "outputs": [
        {
          "internalType": "bool",
          "name": "",
          "type": "bool"
        }
      ],
      "stateMutability": "view",
      "type": "function"
    }
  ],
  "bytecode": "0x608060405234801561001057600080fd5b506040516159a63803806159a68339818101604052602081101561003357600080fd5b8101908080519060200190929190505050336000806101000a81548173ffffffffffffffffffffffffffffffffffffffff021916908373ffffffffffffffffffffffffffffffffffffffff16021790555080600a60006101000a81548173ffffffffffffffffffffffffffffffffffffffff021916908373ffffffffffffffffffffffffffffffffffffffff160217905550506158d1806100d56000396000f3fe608060405260043610620001465760003560e01c806361bc221a11620000bb5780639e546c3811620000795780639e546c381462000661578063ad09c7ce14620006ca578063b13c744b14620006f8578063f406294a1462000777578063fc7e286d1462000883578063fc91a89714620008ec5762000146565b806361bc221a14620004b257806370a0823114620004e05780638da5cb5b146200054957806391b8e8a814620005a3578063979530e614620005f85762000146565b806330c880c3116200010957806330c880c3146200030d5780633cc3e58d14620003765780634041ef5414620003d05780634cf088d9146200043957806358d276f714620004455762000146565b80630700037d146200014b578063163046eb14620001a0578063196214d314620001f55780631d6b8b72146200024f5780632e1a7d4d14620002ce575b600080fd5b3480156200015857600080fd5b506200019e600480360360208110156200017157600080fd5b81019080803573ffffffffffffffffffffffffffffffffffffffff16906020019092919050505062000959565b005b348015620001ad57600080fd5b50620001f360048036036020811015620001c657600080fd5b81019080803573ffffffffffffffffffffffffffffffffffffffff16906020019092919050505062000a60565b005b3480156200020257600080fd5b506200020d62000cb0565b604051808273ffffffffffffffffffffffffffffffffffffffff1673ffffffffffffffffffffffffffffffffffffffff16815260200191505060405180910390f35b3480156200025c57600080fd5b506200028c600480360360208110156200027557600080fd5b810190808035906020019092919050505062000cd6565b604051808273ffffffffffffffffffffffffffffffffffffffff1673ffffffffffffffffffffffffffffffffffffffff16815260200191505060405180910390f35b348015620002db57600080fd5b506200030b60048036036020811015620002f457600080fd5b810190808035906020019092919050505062000d13565b005b3480156200031a57600080fd5b5062000360600480360360208110156200033357600080fd5b81019080803573ffffffffffffffffffffffffffffffffffffffff1690602001909291905050506200116d565b6040518082815260200191505060405180910390f35b3480156200038357600080fd5b506200038e62001185565b604051808273ffffffffffffffffffffffffffffffffffffffff1673ffffffffffffffffffffffffffffffffffffffff16815260200191505060405180910390f35b348015620003dd57600080fd5b506200042360048036036020811015620003f657600080fd5b81019080803573ffffffffffffffffffffffffffffffffffffffff169060200190929190505050620011ab565b6040518082815260200191505060405180910390f35b62000443620011f4565b005b3480156200045257600080fd5b5062000498600480360360208110156200046b57600080fd5b81019080803573ffffffffffffffffffffffffffffffffffffffff169060200190929190505050620013d9565b604051808215151515815260200191505060405180910390f35b348015620004bf57600080fd5b50620004ca62001425565b6040518082815260200191505060405180910390f35b348015620004ed57600080fd5b5062000533600480360360208110156200050657600080fd5b81019080803573ffffffffffffffffffffffffffffffffffffffff1690602001909291905050506200142b565b6040518082815260200191505060405180910390f35b3480156200055657600080fd5b506200056162001443565b604051808273ffffffffffffffffffffffffffffffffffffffff1673ffffffffffffffffffffffffffffffffffffffff16815260200191505060405180910390f35b348015620005b057600080fd5b50620005f660048036036020811015620005c957600080fd5b81019080803573ffffffffffffffffffffffffffffffffffffffff16906020019092919050505062001468565b005b3480156200060557600080fd5b506200064b600480360360208110156200061e57600080fd5b81019080803573ffffffffffffffffffffffffffffffffffffffff169060200190929190505050620017d1565b6040518082815260200191505060405180910390f35b3480156200066e57600080fd5b50620006b4600480360360208110156200068757600080fd5b81019080803573ffffffffffffffffffffffffffffffffffffffff169060200190929190505050620017e9565b6040518082815260200191505060405180910390f35b348015620006d757600080fd5b50620006e26200180a565b6040518082815260200191505060405180910390f35b3480156200070557600080fd5b5062000735600480360360208110156200071e57600080fd5b810190808035906020019092919050505062001810565b604051808273ffffffffffffffffffffffffffffffffffffffff1673ffffffffffffffffffffffffffffffffffffffff16815260200191505060405180910390f35b3480156200078457600080fd5b5062000841600480360360208110156200079d57600080fd5b8101908080359060200190640100000000811115620007bb57600080fd5b820183602082011115620007ce57600080fd5b80359060200191846020830284011164010000000083111715620007f157600080fd5b919080806020026020016040519081016040528093929190818152602001838360200280828437600081840152601f19601f8201169050808301925050505050505091929192905050506200184d565b604051808273ffffffffffffffffffffffffffffffffffffffff1673ffffffffffffffffffffffffffffffffffffffff16815260200191505060405180910390f35b3480156200089057600080fd5b50620008d660048036036020811015620008a957600080fd5b81019080803573ffffffffffffffffffffffffffffffffffffffff16906020019092919050505062001c10565b6040518082815260200191505060405180910390f35b348015620008f957600080fd5b506200093f600480360360208110156200091257600080fd5b81019080803573ffffffffffffffffffffffffffffffffffffffff16906020019092919050505062001c28565b604051808215151515815260200191505060405180910390f35b620009648162001c75565b15620009bc576040517f08c379a0000000000000000000000000000000000000000000000000000000008152600401808060200182810382526035815260200180620058676035913960400191505060405180910390fd5b60006005905080600260003373ffffffffffffffffffffffffffffffffffffffff1673ffffffffffffffffffffffffffffffffffffffff1681526020019081526020016000206000828254019250508190555080600260003073ffffffffffffffffffffffffffffffffffffffff1673ffffffffffffffffffffffffffffffffffffffff168152602001908152602001600020600082825403925050819055505050565b600080905060008090505b60068054905081101562000af9576006818154811062000a8757fe5b9060005260206000200160009054906101000a900473ffffffffffffffffffffffffffffffffffffffff1673ffffffffffffffffffffffffffffffffffffffff163373ffffffffffffffffffffffffffffffffffffffff16141562000aeb57600191505b808060010191505062000a6b565b508062000b6e576040517f08c379a00000000000000000000000000000000000000000000000000000000081526004018080602001828103825260198152602001807f55736572206973206e6f742061205354414b45484f4c4445520000000000000081525060200191505060405180910390fd5b600073ffffffffffffffffffffffffffffffffffffffff163373ffffffffffffffffffffffffffffffffffffffff16141562000ba957600080fd5b600073ffffffffffffffffffffffffffffffffffffffff168273ffffffffffffffffffffffffffffffffffffffff16141562000be457600080fd5b600062000bf18362001d1c565b90508062000c5d576005839080600181540180825580915050600190039060005260206000200160009091909190916101000a81548173ffffffffffffffffffffffffffffffffffffffff021916908373ffffffffffffffffffffffffffffffffffffffff1602179055505b6001600460008573ffffffffffffffffffffffffffffffffffffffff1673ffffffffffffffffffffffffffffffffffffffff16815260200190815260200160002060008282540192505081905550505050565b600a60009054906101000a900473ffffffffffffffffffffffffffffffffffffffff1681565b6006818154811062000ce457fe5b906000526020600020016000915054906101000a900473ffffffffffffffffffffffffffffffffffffffff1681565b600080905060008090505b60068054905081101562000dac576006818154811062000d3a57fe5b9060005260206000200160009054906101000a900473ffffffffffffffffffffffffffffffffffffffff1673ffffffffffffffffffffffffffffffffffffffff163373ffffffffffffffffffffffffffffffffffffffff16141562000d9e57600191505b808060010191505062000d1e565b508062000e21576040517f08c379a00000000000000000000000000000000000000000000000000000000081526004018080602001828103825260198152602001807f55736572206973206e6f742061205354414b45484f4c4445520000000000000081525060200191505060405180910390fd5b60008060009054906101000a900473ffffffffffffffffffffffffffffffffffffffff1673ffffffffffffffffffffffffffffffffffffffff168360405180600001905060006040518083038185875af1925050503d806000811462000ea4576040519150601f19603f3d011682016040523d82523d6000602084013e62000ea9565b606091505b505090508062000f21576040517f08c379a00000000000000000000000000000000000000000000000000000000081526004018080602001828103825260108152602001807f5472616e73666572206661696c6564210000000000000000000000000000000081525060200191505060405180910390fd5b6000600360003373ffffffffffffffffffffffffffffffffffffffff1673ffffffffffffffffffffffffffffffffffffffff16815260200190815260200160002054141562000fd8576040517f08c379a00000000000000000000000000000000000000000000000000000000081526004018080602001828103825260138152602001807f596f752063616e7420776974686472617720300000000000000000000000000081525060200191505060405180910390fd5b82600360003373ffffffffffffffffffffffffffffffffffffffff1673ffffffffffffffffffffffffffffffffffffffff168152602001908152602001600020541162001071576040517f08c379a0000000000000000000000000000000000000000000000000000000008152600401808060200182810382526025815260200180620058426025913960400191505060405180910390fd5b82600360003373ffffffffffffffffffffffffffffffffffffffff1673ffffffffffffffffffffffffffffffffffffffff168152602001908152602001600020600082825403925050819055508260016000828254039250508190555082600260003073ffffffffffffffffffffffffffffffffffffffff1673ffffffffffffffffffffffffffffffffffffffff1681526020019081526020016000206000828254039250508190555082600260003373ffffffffffffffffffffffffffffffffffffffff1673ffffffffffffffffffffffffffffffffffffffff16815260200190815260200160002060008282540192505081905550505050565b60046020528060005260406000206000915090505481565b600960009054906101000a900473ffffffffffffffffffffffffffffffffffffffff1681565b6000600460008373ffffffffffffffffffffffffffffffffffffffff1673ffffffffffffffffffffffffffffffffffffffff168152602001908152602001600020549050919050565b60003490506000339050600073ffffffffffffffffffffffffffffffffffffffff163373ffffffffffffffffffffffffffffffffffffffff1614156200123957600080fd5b6001341015620012b1576040517f08c379a000000000000000000000000000000000000000000000000000000000815260040180806020018281038252601b8152602001807f596f752063616e207374616b652031206f72206d6f726520576569000000000081525060200191505060405180910390fd5b8160016000828254019250508190555081600260003073ffffffffffffffffffffffffffffffffffffffff1673ffffffffffffffffffffffffffffffffffffffff1681526020019081526020016000206000828254019250508190555081600360003373ffffffffffffffffffffffffffffffffffffffff1673ffffffffffffffffffffffffffffffffffffffff168152602001908152602001600020600082825401925050819055506000620013688262001dc1565b905080620013d4576006829080600181540180825580915050600190039060005260206000200160009091909190916101000a81548173ffffffffffffffffffffffffffffffffffffffff021916908373ffffffffffffffffffffffffffffffffffffffff1602179055505b505050565b600080600860008473ffffffffffffffffffffffffffffffffffffffff1673ffffffffffffffffffffffffffffffffffffffff1681526020019081526020016000205414159050919050565b60075481565b60026020528060005260406000206000915090505481565b6000809054906101000a900473ffffffffffffffffffffffffffffffffffffffff1681565b600080905060008090505b6006805490508110156200150157600681815481106200148f57fe5b9060005260206000200160009054906101000a900473ffffffffffffffffffffffffffffffffffffffff1673ffffffffffffffffffffffffffffffffffffffff163373ffffffffffffffffffffffffffffffffffffffff161415620014f357600191505b808060010191505062001473565b508062001576576040517f08c379a00000000000000000000000000000000000000000000000000000000081526004018080602001828103825260198152602001807f55736572206973206e6f742061205354414b45484f4c4445520000000000000081525060200191505060405180910390fd5b620015818262001c75565b620015d8576040517f08c379a0000000000000000000000000000000000000000000000000000000008152600401808060200182810382526035815260200180620058676035913960400191505060405180910390fd5b600073ffffffffffffffffffffffffffffffffffffffff163373ffffffffffffffffffffffffffffffffffffffff1614156200161357600080fd5b60006200162083620017e9565b141562001695576040517f08c379a000000000000000000000000000000000000000000000000000000000815260040180806020018281038252601b8152602001807f54686973206163636f756e7420686173206e6f2062616c616e6365000000000081525060200191505060405180910390fd5b6000600a9050620016ef81600360008673ffffffffffffffffffffffffffffffffffffffff1673ffffffffffffffffffffffffffffffffffffffff1681526020019081526020016000205462001e6690919063ffffffff16565b600360008573ffffffffffffffffffffffffffffffffffffffff1673ffffffffffffffffffffffffffffffffffffffff1681526020019081526020016000208190555080600260003373ffffffffffffffffffffffffffffffffffffffff1673ffffffffffffffffffffffffffffffffffffffff1681526020019081526020016000206000828254039250508190555080600260003073ffffffffffffffffffffffffffffffffffffffff1673ffffffffffffffffffffffffffffffffffffffff16815260200190815260200160002060008282540192505081905550505050565b60086020528060005260406000206000915090505481565b60008173ffffffffffffffffffffffffffffffffffffffff16319050919050565b60015481565b600581815481106200181e57fe5b906000526020600020016000915054906101000a900473ffffffffffffffffffffffffffffffffffffffff1681565b6000806000905060008090505b600680549050811015620018e857600681815481106200187657fe5b9060005260206000200160009054906101000a900473ffffffffffffffffffffffffffffffffffffffff1673ffffffffffffffffffffffffffffffffffffffff163373ffffffffffffffffffffffffffffffffffffffff161415620018da57600191505b80806001019150506200185a565b50806200195d576040517f08c379a00000000000000000000000000000000000000000000000000000000081526004018080602001828103825260198152602001807f55736572206973206e6f742061205354414b45484f4c4445520000000000000081525060200191505060405180910390fd5b6000600a60009054906101000a900473ffffffffffffffffffffffffffffffffffffffff16336283d60086604051620019969062001f76565b808573ffffffffffffffffffffffffffffffffffffffff1673ffffffffffffffffffffffffffffffffffffffff1681526020018473ffffffffffffffffffffffffffffffffffffffff1673ffffffffffffffffffffffffffffffffffffffff16815260200183815260200180602001828103825283818151815260200191508051906020019060200280838360005b8381101562001a4257808201518184015260208101905062001a25565b5050505090500195505050505050604051809103906000f08015801562001a6d573d6000803e3d6000fd5b509050600760008154809291906001019190505550600754600860008373ffffffffffffffffffffffffffffffffffffffff1673ffffffffffffffffffffffffffffffffffffffff1681526020019081526020016000208190555080600960006101000a81548173ffffffffffffffffffffffffffffffffffffffff021916908373ffffffffffffffffffffffffffffffffffffffff1602179055507fdb50a9e15b4eabbc5e97186ae158f84d5f78e14d0495e4cf35386b4bed4e5a7e600a60009054906101000a900473ffffffffffffffffffffffffffffffffffffffff16600960009054906101000a900473ffffffffffffffffffffffffffffffffffffffff16604051808373ffffffffffffffffffffffffffffffffffffffff1673ffffffffffffffffffffffffffffffffffffffff1681526020018273ffffffffffffffffffffffffffffffffffffffff1673ffffffffffffffffffffffffffffffffffffffff1681526020019250505060405180910390a1600960009054906101000a900473ffffffffffffffffffffffffffffffffffffffff1692505050919050565b60036020528060005260406000206000915090505481565b6000600754600860008473ffffffffffffffffffffffffffffffffffffffff1673ffffffffffffffffffffffffffffffffffffffff16815260200190815260200160002054149050919050565b600080600090505b60058054905081101562001d11578273ffffffffffffffffffffffffffffffffffffffff166005828154811062001cb057fe5b9060005260206000200160009054906101000a900473ffffffffffffffffffffffffffffffffffffffff1673ffffffffffffffffffffffffffffffffffffffff16141562001d0357600191505062001d17565b808060010191505062001c7d565b50600090505b919050565b600080600090505b60058054905081101562001db6576005818154811062001d4057fe5b9060005260206000200160009054906101000a900473ffffffffffffffffffffffffffffffffffffffff1673ffffffffffffffffffffffffffffffffffffffff168373ffffffffffffffffffffffffffffffffffffffff16141562001daa57600191505062001dbc565b60018101905062001d24565b50600090505b919050565b600080600090505b60068054905081101562001e5b576006818154811062001de557fe5b9060005260206000200160009054906101000a900473ffffffffffffffffffffffffffffffffffffffff1673ffffffffffffffffffffffffffffffffffffffff168373ffffffffffffffffffffffffffffffffffffffff16141562001e4f57600191505062001e61565b60018101905062001dc9565b50600090505b919050565b600062001eaa83836040518060400160405280601e81526020017f536166654d6174683a207375627472616374696f6e206f766572666c6f77000081525062001eb2565b905092915050565b600083831115829062001f63576040517f08c379a00000000000000000000000000000000000000000000000000000000081526004018080602001828103825283818151815260200191508051906020019080838360005b8381101562001f2757808201518184015260208101905062001f0a565b50505050905090810190601f16801562001f555780820380516001836020036101000a031916815260200191505b509250505060405180910390fd5b5060008385039050809150509392505050565b6138bd8062001f858339019056fe60806040523480156200001157600080fd5b50604051620038bd380380620038bd833981810160405260808110156200003757600080fd5b81019080805190602001909291908051906020019092919080519060200190929190805160405193929190846401000000008211156200007657600080fd5b838201915060208201858111156200008d57600080fd5b8251866020820283011164010000000082111715620000ab57600080fd5b8083526020830192505050908051906020019060200280838360005b83811015620000e4578082015181840152602081019050620000c7565b5050505090500160405250505083600660006101000a81548173ffffffffffffffffffffffffffffffffffffffff021916908373ffffffffffffffffffffffffffffffffffffffff16021790555060008060006101000a81548160ff021916908360058111156200015157fe5b0217905550620001704283620002c360201b62002f191790919060201c565b600b8190555033600260006101000a81548173ffffffffffffffffffffffffffffffffffffffff021916908373ffffffffffffffffffffffffffffffffffffffff16021790555082600360006101000a81548173ffffffffffffffffffffffffffffffffffffffff021916908373ffffffffffffffffffffffffffffffffffffffff1602179055506001600e60008573ffffffffffffffffffffffffffffffffffffffff1673ffffffffffffffffffffffffffffffffffffffff16815260200190815260200160002060006101000a81548160ff0219169083151502179055506001600e60003373ffffffffffffffffffffffffffffffffffffffff1673ffffffffffffffffffffffffffffffffffffffff16815260200190815260200160002060006101000a81548160ff021916908315150217905550620002b9816200034c60201b60201c565b505050506200047e565b60008082840190508381101562000342576040517f08c379a000000000000000000000000000000000000000000000000000000000815260040180806020018281038252601b8152602001807f536166654d6174683a206164646974696f6e206f766572666c6f77000000000081525060200191505060405180910390fd5b8091505092915050565b600e60003373ffffffffffffffffffffffffffffffffffffffff1673ffffffffffffffffffffffffffffffffffffffff16815260200190815260200160002060009054906101000a900460ff16620003f0576040517f08c379a000000000000000000000000000000000000000000000000000000000815260040180806020018281038252602b81526020018062003892602b913960400191505060405180910390fd5b60008090505b81518110156200047a576001600e60008484815181106200041357fe5b602002602001015173ffffffffffffffffffffffffffffffffffffffff1673ffffffffffffffffffffffffffffffffffffffff16815260200190815260200160002060006101000a81548160ff0219169083151502179055508080600101915050620003f6565b5050565b613404806200048e6000396000f3fe608060405234801561001057600080fd5b50600436106101585760003560e01c80639753e432116100c3578063cc06cfa91161007c578063cc06cfa9146109ef578063d65281f014610a11578063ea8a1af014610a53578063f17171e914610a75578063f926657e14610ad1578063fad844c114610c7757610158565b80639753e43214610566578063992d454d146105b05780639c48b102146105fa5780639eb262f31461067d578063b63d1a0014610735578063bb19d62f146109d157610158565b8063200d2ed211610115578063200d2ed2146102ce578063337f3f32146102fa57806335a063b41461037d57806343aba9c214610387578063522e11771461040a578063697e4b871461041457610158565b80630529198f1461015d5780630f46c9aa1461017b5780630fb5a6b4146101fe57806312065fe01461021c57806316eebd1e1461023a578063196214d314610284575b600080fd5b610165610cc1565b6040518082815260200191505060405180910390f35b610183610cc7565b6040518080602001828103825283818151815260200191508051906020019080838360005b838110156101c35780820151818401526020810190506101a8565b50505050905090810190601f1680156101f05780820380516001836020036101000a031916815260200191505b509250505060405180910390f35b610206610d65565b6040518082815260200191505060405180910390f35b610224610d6b565b6040518082815260200191505060405180910390f35b610242610e4c565b604051808273ffffffffffffffffffffffffffffffffffffffff1673ffffffffffffffffffffffffffffffffffffffff16815260200191505060405180910390f35b61028c610e72565b604051808273ffffffffffffffffffffffffffffffffffffffff1673ffffffffffffffffffffffffffffffffffffffff16815260200191505060405180910390f35b6102d6610e98565b604051808260058111156102e657fe5b60ff16815260200191505060405180910390f35b610302610eaa565b6040518080602001828103825283818151815260200191508051906020019080838360005b83811015610342578082015181840152602081019050610327565b50505050905090810190601f16801561036f5780820380516001836020036101000a031916815260200191505b509250505060405180910390f35b610385610f48565b005b61038f611191565b6040518080602001828103825283818151815260200191508051906020019080838360005b838110156103cf5780820151818401526020810190506103b4565b50505050905090810190601f1680156103fc5780820380516001836020036101000a031916815260200191505b509250505060405180910390f35b61041261122f565b005b6105646004803603604081101561042a57600080fd5b810190808035906020019064010000000081111561044757600080fd5b82018360208201111561045957600080fd5b8035906020019184600183028401116401000000008311171561047b57600080fd5b91908080601f016020809104026020016040519081016040528093929190818152602001838380828437600081840152601f19601f820116905080830192505050505050509192919290803590602001906401000000008111156104de57600080fd5b8201836020820111156104f057600080fd5b8035906020019184600183028401116401000000008311171561051257600080fd5b91908080601f016020809104026020016040519081016040528093929190818152602001838380828437600081840152601f19601f82011690508083019250505050505050919291929050505061147c565b005b61056e61176b565b604051808273ffffffffffffffffffffffffffffffffffffffff1673ffffffffffffffffffffffffffffffffffffffff16815260200191505060405180910390f35b6105b8611791565b604051808273ffffffffffffffffffffffffffffffffffffffff1673ffffffffffffffffffffffffffffffffffffffff16815260200191505060405180910390f35b6106026117b7565b6040518080602001828103825283818151815260200191508051906020019080838360005b83811015610642578082015181840152602081019050610627565b50505050905090810190601f16801561066f5780820380516001836020036101000a031916815260200191505b509250505060405180910390f35b6107336004803603602081101561069357600080fd5b81019080803590602001906401000000008111156106b057600080fd5b8201836020820111156106c257600080fd5b803590602001918460208302840111640100000000831117156106e457600080fd5b919080806020026020016040519081016040528093929190818152602001838360200280828437600081840152601f19601f820116905080830192505050505050509192919290505050611855565b005b6109b7600480360360a081101561074b57600080fd5b810190808035906020019064010000000081111561076857600080fd5b82018360208201111561077a57600080fd5b8035906020019184602083028401116401000000008311171561079c57600080fd5b919080806020026020016040519081016040528093929190818152602001838360200280828437600081840152601f19601f820116905080830192505050505050509192919290803590602001906401000000008111156107fc57600080fd5b82018360208201111561080e57600080fd5b8035906020019184602083028401116401000000008311171561083057600080fd5b919080806020026020016040519081016040528093929190818152602001838360200280828437600081840152601f19601f8201169050808301925050505050505091929192908035906020019064010000000081111561089057600080fd5b8201836020820111156108a257600080fd5b803590602001918460018302840111640100000000831117156108c457600080fd5b91908080601f016020809104026020016040519081016040528093929190818152602001838380828437600081840152601f19601f8201169050808301925050505050505091929192908035906020019064010000000081111561092757600080fd5b82018360208201111561093957600080fd5b8035906020019184600183028401116401000000008311171561095b57600080fd5b91908080601f016020809104026020016040519081016040528093929190818152602001838380828437600081840152601f19601f82011690508083019250505050505050919291929080359060200190929190505050611982565b604051808215151515815260200191505060405180910390f35b6109d96122ef565b6040518082815260200191505060405180910390f35b6109f76122f5565b604051808215151515815260200191505060405180910390f35b610a3d60048036036020811015610a2757600080fd5b8101908080359060200190929190505050612308565b6040518082815260200191505060405180910390f35b610a5b612329565b604051808215151515815260200191505060405180910390f35b610ab760048036036020811015610a8b57600080fd5b81019080803573ffffffffffffffffffffffffffffffffffffffff1690602001909291905050506126d9565b604051808215151515815260200191505060405180910390f35b610c75600480360360c0811015610ae757600080fd5b81019080803573ffffffffffffffffffffffffffffffffffffffff169060200190929190803573ffffffffffffffffffffffffffffffffffffffff169060200190929190803590602001909291908035906020019092919080359060200190640100000000811115610b5857600080fd5b820183602082011115610b6a57600080fd5b80359060200191846001830284011164010000000083111715610b8c57600080fd5b91908080601f016020809104026020016040519081016040528093929190818152602001838380828437600081840152601f19601f82011690508083019250505050505050919291929080359060200190640100000000811115610bef57600080fd5b820183602082011115610c0157600080fd5b80359060200191846001830284011164010000000083111715610c2357600080fd5b91908080601f016020809104026020016040519081016040528093929190818152602001838380828437600081840152601f19601f8201169050808301925050505050505091929192905050506126f9565b005b610c7f612daf565b604051808273ffffffffffffffffffffffffffffffffffffffff1673ffffffffffffffffffffffffffffffffffffffff16815260200191505060405180910390f35b60055481565b600a8054600181600116156101000203166002900480601f016020809104026020016040519081016040528092919081815260200182805460018160011615610100020316600290048015610d5d5780601f10610d3257610100808354040283529160200191610d5d565b820191906000526020600020905b815481529060010190602001808311610d4057829003601f168201915b505050505081565b600b5481565b6000600660009054906101000a900473ffffffffffffffffffffffffffffffffffffffff1673ffffffffffffffffffffffffffffffffffffffff166370a08231306040518263ffffffff1660e01b8152600401808273ffffffffffffffffffffffffffffffffffffffff1673ffffffffffffffffffffffffffffffffffffffff16815260200191505060206040518083038186803b158015610e0c57600080fd5b505afa158015610e20573d6000803e3d6000fd5b505050506040513d6020811015610e3657600080fd5b8101908080519060200190929190505050905090565b600260009054906101000a900473ffffffffffffffffffffffffffffffffffffffff1681565b600660009054906101000a900473ffffffffffffffffffffffffffffffffffffffff1681565b6000809054906101000a900460ff1681565b60088054600181600116156101000203166002900480601f016020809104026020016040519081016040528092919081815260200182805460018160011615610100020316600290048015610f405780601f10610f1557610100808354040283529160200191610f40565b820191906000526020600020905b815481529060010190602001808311610f2357829003601f168201915b505050505081565b600e60003373ffffffffffffffffffffffffffffffffffffffff1673ffffffffffffffffffffffffffffffffffffffff16815260200190815260200160002060009054906101000a900460ff16611007576040517f08c379a000000000000000000000000000000000000000000000000000000000815260040180806020018281038252601b8152602001807f416464726573732063616c6c696e67206e6f742074727573746564000000000081525060200191505060405180910390fd5b6004600581111561101457fe5b6000809054906101000a900460ff16600581111561102e57fe5b14156110a2576040517f08c379a000000000000000000000000000000000000000000000000000000000815260040180806020018281038252601f8152602001807f457363726f7720696e20436f6d706c657465207374617475732073746174650081525060200191505060405180910390fd5b600360058111156110af57fe5b6000809054906101000a900460ff1660058111156110c957fe5b141561113d576040517f08c379a000000000000000000000000000000000000000000000000000000000815260040180806020018281038252601b8152602001807f457363726f7720696e205061696420737461747573207374617465000000000081525060200191505060405180910390fd5b6000611147610d6b565b1461115657611154612329565b505b600360009054906101000a900473ffffffffffffffffffffffffffffffffffffffff1673ffffffffffffffffffffffffffffffffffffffff16ff5b60098054600181600116156101000203166002900480601f0160208091040260200160405190810160405280929190818152602001828054600181600116156101000203166002900480156112275780601f106111fc57610100808354040283529160200191611227565b820191906000526020600020905b81548152906001019060200180831161120a57829003601f168201915b505050505081565b42600b54116112a6576040517f08c379a00000000000000000000000000000000000000000000000000000000081526004018080602001828103825260108152602001807f436f6e747261637420657870697265640000000000000000000000000000000081525060200191505060405180910390fd5b600060019054906101000a900473ffffffffffffffffffffffffffffffffffffffff1673ffffffffffffffffffffffffffffffffffffffff163373ffffffffffffffffffffffffffffffffffffffff16148061134b5750600e60003373ffffffffffffffffffffffffffffffffffffffff1673ffffffffffffffffffffffffffffffffffffffff16815260200190815260200160002060009054906101000a900460ff165b6113bd576040517f08c379a000000000000000000000000000000000000000000000000000000000815260040180806020018281038252601e8152602001807f416464726573732063616c6c696e67206973206e6f742074727573746564000081525060200191505060405180910390fd5b600360058111156113ca57fe5b6000809054906101000a900460ff1660058111156113e457fe5b14611457576040517f08c379a00000000000000000000000000000000000000000000000000000000081526004018080602001828103825260188152602001807f457363726f77206e6f7420696e2050616964207374617465000000000000000081525060200191505060405180910390fd5b60046000806101000a81548160ff0219169083600581111561147557fe5b0217905550565b600e60003373ffffffffffffffffffffffffffffffffffffffff1673ffffffffffffffffffffffffffffffffffffffff16815260200190815260200160002060009054906101000a900460ff1661153b576040517f08c379a000000000000000000000000000000000000000000000000000000000815260040180806020018281038252601b8152602001807f416464726573732063616c6c696e67206e6f742074727573746564000000000081525060200191505060405180910390fd5b42600b54116115b2576040517f08c379a00000000000000000000000000000000000000000000000000000000081526004018080602001828103825260108152602001807f436f6e747261637420657870697265640000000000000000000000000000000081525060200191505060405180910390fd5b600160058111156115bf57fe5b6000809054906101000a900460ff1660058111156115d957fe5b14806116095750600260058111156115ed57fe5b6000809054906101000a900460ff16600581111561160757fe5b145b61165e576040517f08c379a000000000000000000000000000000000000000000000000000000000815260040180806020018281038252602d815260200180613308602d913960400191505060405180910390fd5b7fb20e0717219840fd5684a80bec782e8babb56ea224f677561b791a61192605c18282604051808060200180602001838103835285818151815260200191508051906020019080838360005b838110156116c55780820151818401526020810190506116aa565b50505050905090810190601f1680156116f25780820380516001836020036101000a031916815260200191505b50838103825284818151815260200191508051906020019080838360005b8381101561172b578082015181840152602081019050611710565b50505050905090810190601f1680156117585780820380516001836020036101000a031916815260200191505b5094505050505060405180910390a15050565b600160009054906101000a900473ffffffffffffffffffffffffffffffffffffffff1681565b600360009054906101000a900473ffffffffffffffffffffffffffffffffffffffff1681565b60078054600181600116156101000203166002900480601f01602080910402602001604051908101604052809291908181526020018280546001816001161561010002031660029004801561184d5780601f106118225761010080835404028352916020019161184d565b820191906000526020600020905b81548152906001019060200180831161183057829003601f168201915b505050505081565b600e60003373ffffffffffffffffffffffffffffffffffffffff1673ffffffffffffffffffffffffffffffffffffffff16815260200190815260200160002060009054906101000a900460ff166118f7576040517f08c379a000000000000000000000000000000000000000000000000000000000815260040180806020018281038252602b815260200180613358602b913960400191505060405180910390fd5b60008090505b815181101561197e576001600e600084848151811061191857fe5b602002602001015173ffffffffffffffffffffffffffffffffffffffff1673ffffffffffffffffffffffffffffffffffffffff16815260200190815260200160002060006101000a81548160ff02191690831515021790555080806001019150506118fd565b5050565b6000600e60003373ffffffffffffffffffffffffffffffffffffffff1673ffffffffffffffffffffffffffffffffffffffff16815260200190815260200160002060009054906101000a900460ff16611a43576040517f08c379a000000000000000000000000000000000000000000000000000000000815260040180806020018281038252601b8152602001807f416464726573732063616c6c696e67206e6f742074727573746564000000000081525060200191505060405180910390fd5b6000611a4d610d6b565b1415611ac1576040517f08c379a000000000000000000000000000000000000000000000000000000000815260040180806020018281038252601b8152602001807f454950323020636f6e7472616374206f7574206f662066756e6473000000000081525060200191505060405180910390fd5b60006005811115611ace57fe5b6000809054906101000a900460ff166005811115611ae857fe5b1415611b5c576040517f08c379a000000000000000000000000000000000000000000000000000000000815260040180806020018281038252601f8152602001807f457363726f7720696e204c61756e63686564207374617475732073746174650081525060200191505060405180910390fd5b60036005811115611b6957fe5b6000809054906101000a900460ff166005811115611b8357fe5b1415611bf7576040517f08c379a000000000000000000000000000000000000000000000000000000000815260040180806020018281038252601b8152602001807f457363726f7720696e205061696420737461747573207374617465000000000081525060200191505060405180910390fd5b42600b5411611c6e576040517f08c379a00000000000000000000000000000000000000000000000000000000081526004018080602001828103825260108152602001807f436f6e747261637420657870697265640000000000000000000000000000000081525060200191505060405180910390fd5b8451865114611cc8576040517f08c379a000000000000000000000000000000000000000000000000000000000815260040180806020018281038252602b815260200180613383602b913960400191505060405180910390fd5b606463ffffffff16865110611d45576040517f08c379a00000000000000000000000000000000000000000000000000000000081526004018080602001828103825260138152602001807f546f6f206d616e7920726563697069656e74730000000000000000000000000081525060200191505060405180910390fd5b6000611d4f610d6b565b90506000600d60006101000a81548160ff021916908315150217905550600080905060005b8751811015611da257878181518110611d8957fe5b6020026020010151820191508080600101915050611d74565b506b033b2e3c9fd0803ce80000008110611e24576040517f08c379a00000000000000000000000000000000000000000000000000000000081526004018080602001828103825260138152602001807f42756c6b2076616c756520746f6f20686967680000000000000000000000000081525060200191505060405180910390fd5b80821015611e4557600d60009054906101000a900460ff16925050506122e6565b6000808651141580611e5957506000875114155b90508015611e90578660099080519060200190611e77929190613241565b5085600a9080519060200190611e8e929190613241565b505b600080611e9c8a612dd5565b915091506000600660009054906101000a900473ffffffffffffffffffffffffffffffffffffffff16905060008090505b8c51811015611fce578173ffffffffffffffffffffffffffffffffffffffff1663a9059cbb8e8381518110611efe57fe5b6020026020010151600c8481548110611f1357fe5b90600052602060002001546040518363ffffffff1660e01b8152600401808373ffffffffffffffffffffffffffffffffffffffff1673ffffffffffffffffffffffffffffffffffffffff16815260200182815260200192505050602060405180830381600087803b158015611f8757600080fd5b505af1158015611f9b573d6000803e3d6000fd5b505050506040513d6020811015611fb157600080fd5b810190808051906020019092919050505050806001019050611ecd565b50600c6000611fdd91906132c1565b8073ffffffffffffffffffffffffffffffffffffffff1663a9059cbb600060019054906101000a900473ffffffffffffffffffffffffffffffffffffffff16856040518363ffffffff1660e01b8152600401808373ffffffffffffffffffffffffffffffffffffffff1673ffffffffffffffffffffffffffffffffffffffff16815260200182815260200192505050602060405180830381600087803b15801561208657600080fd5b505af115801561209a573d6000803e3d6000fd5b505050506040513d60208110156120b057600080fd5b810190808051906020019092919050505080156121ad57508073ffffffffffffffffffffffffffffffffffffffff1663a9059cbb600160009054906101000a900473ffffffffffffffffffffffffffffffffffffffff16846040518363ffffffff1660e01b8152600401808373ffffffffffffffffffffffffffffffffffffffff1673ffffffffffffffffffffffffffffffffffffffff16815260200182815260200192505050602060405180830381600087803b15801561217157600080fd5b505af1158015612185573d6000803e3d6000fd5b505050506040513d602081101561219b57600080fd5b81019080805190602001909291905050505b600d60006101000a81548160ff0219169083151502179055506121ce610d6b565b9550600d60009054906101000a900460ff161561229457600160058111156121f257fe5b6000809054906101000a900460ff16600581111561220c57fe5b14156122365760026000806101000a81548160ff0219169083600581111561223057fe5b02179055505b60008614801561226a57506002600581111561224e57fe5b6000809054906101000a900460ff16600581111561226857fe5b145b156122935760036000806101000a81548160ff0219169083600581111561228d57fe5b02179055505b5b877f8ed71c3a6fb899bfe96968ade5a4119b380c0d642a775106eb80aa795450777e8d516040518082815260200191505060405180910390a2600d60009054906101000a900460ff1696505050505050505b95945050505050565b60045481565b600d60009054906101000a900460ff1681565b600c818154811061231557fe5b906000526020600020016000915090505481565b6000600e60003373ffffffffffffffffffffffffffffffffffffffff1673ffffffffffffffffffffffffffffffffffffffff16815260200190815260200160002060009054906101000a900460ff166123ea576040517f08c379a000000000000000000000000000000000000000000000000000000000815260040180806020018281038252601b8152602001807f416464726573732063616c6c696e67206e6f742074727573746564000000000081525060200191505060405180910390fd5b60006123f4610d6b565b1415612468576040517f08c379a000000000000000000000000000000000000000000000000000000000815260040180806020018281038252601b8152602001807f454950323020636f6e7472616374206f7574206f662066756e6473000000000081525060200191505060405180910390fd5b6004600581111561247557fe5b6000809054906101000a900460ff16600581111561248f57fe5b1415612503576040517f08c379a000000000000000000000000000000000000000000000000000000000815260040180806020018281038252601f8152602001807f457363726f7720696e20436f6d706c657465207374617475732073746174650081525060200191505060405180910390fd5b6003600581111561251057fe5b6000809054906101000a900460ff16600581111561252a57fe5b141561259e576040517f08c379a000000000000000000000000000000000000000000000000000000000815260040180806020018281038252601b8152602001807f457363726f7720696e205061696420737461747573207374617465000000000081525060200191505060405180910390fd5b6000600660009054906101000a900473ffffffffffffffffffffffffffffffffffffffff1673ffffffffffffffffffffffffffffffffffffffff1663a9059cbb600360009054906101000a900473ffffffffffffffffffffffffffffffffffffffff16612609610d6b565b6040518363ffffffff1660e01b8152600401808373ffffffffffffffffffffffffffffffffffffffff1673ffffffffffffffffffffffffffffffffffffffff16815260200182815260200192505050602060405180830381600087803b15801561267257600080fd5b505af1158015612686573d6000803e3d6000fd5b505050506040513d602081101561269c57600080fd5b8101908080519060200190929190505050905060056000806101000a81548160ff021916908360058111156126cd57fe5b02179055508091505090565b600e6020528060005260406000206000915054906101000a900460ff1681565b600e60003373ffffffffffffffffffffffffffffffffffffffff1673ffffffffffffffffffffffffffffffffffffffff16815260200190815260200160002060009054906101000a900460ff166127b8576040517f08c379a000000000000000000000000000000000000000000000000000000000815260040180806020018281038252601b8152602001807f416464726573732063616c6c696e67206e6f742074727573746564000000000081525060200191505060405180910390fd5b42600b541161282f576040517f08c379a00000000000000000000000000000000000000000000000000000000081526004018080602001828103825260108152602001807f436f6e747261637420657870697265640000000000000000000000000000000081525060200191505060405180910390fd5b600073ffffffffffffffffffffffffffffffffffffffff168673ffffffffffffffffffffffffffffffffffffffff1614156128d2576040517f08c379a00000000000000000000000000000000000000000000000000000000081526004018080602001828103825260208152602001807f496e76616c6964206f72206d697373696e6720746f6b656e207370656e64657281525060200191505060405180910390fd5b600073ffffffffffffffffffffffffffffffffffffffff168573ffffffffffffffffffffffffffffffffffffffff161415612975576040517f08c379a00000000000000000000000000000000000000000000000000000000081526004018080602001828103825260208152602001807f496e76616c6964206f72206d697373696e6720746f6b656e207370656e64657281525060200191505060405180910390fd5b600061298a8486612f1990919063ffffffff16565b90506000811015801561299e575060648111155b612a10576040517f08c379a00000000000000000000000000000000000000000000000000000000081526004018080602001828103825260138152602001807f5374616b65206f7574206f6620626f756e64730000000000000000000000000081525060200191505060405180910390fd5b60006005811115612a1d57fe5b6000809054906101000a900460ff166005811115612a3757fe5b14612a8d576040517f08c379a00000000000000000000000000000000000000000000000000000000081526004018080602001828103825260238152602001806133356023913960400191505060405180910390fd5b86600060016101000a81548173ffffffffffffffffffffffffffffffffffffffff021916908373ffffffffffffffffffffffffffffffffffffffff16021790555085600160006101000a81548173ffffffffffffffffffffffffffffffffffffffff021916908373ffffffffffffffffffffffffffffffffffffffff1602179055506001600e60008060019054906101000a900473ffffffffffffffffffffffffffffffffffffffff1673ffffffffffffffffffffffffffffffffffffffff1673ffffffffffffffffffffffffffffffffffffffff16815260200190815260200160002060006101000a81548160ff0219169083151502179055506001600e6000600160009054906101000a900473ffffffffffffffffffffffffffffffffffffffff1673ffffffffffffffffffffffffffffffffffffffff1673ffffffffffffffffffffffffffffffffffffffff16815260200190815260200160002060006101000a81548160ff02191690831515021790555084600481905550836005819055508260079080519060200190612c26929190613241565b508160089080519060200190612c3d929190613241565b5060016000806101000a81548160ff02191690836005811115612c5c57fe5b02179055507f8ec464ac0c8e44e17130cd1ffb09967fa6f2c33339289678a59ea0112cfc2aa960076008604051808060200180602001838103835285818154600181600116156101000203166002900481526020019150805460018160011615610100020316600290048015612d135780601f10612ce857610100808354040283529160200191612d13565b820191906000526020600020905b815481529060010190602001808311612cf657829003601f168201915b5050838103825284818154600181600116156101000203166002900481526020019150805460018160011615610100020316600290048015612d965780601f10612d6b57610100808354040283529160200191612d96565b820191906000526020600020905b815481529060010190602001808311612d7957829003601f168201915b505094505050505060405180910390a150505050505050565b600060019054906101000a900473ffffffffffffffffffffffffffffffffffffffff1681565b6000806000809050600080905060005b8551811015612f0b576000612e2b6064612e1d898581518110612e0457fe5b6020026020010151600454612fa190919063ffffffff16565b61302790919063ffffffff16565b90506000612e6a6064612e5c8a8681518110612e4357fe5b6020026020010151600554612fa190919063ffffffff16565b61302790919063ffffffff16565b90506000612ea682612e98858c8881518110612e8257fe5b602002602001015161307190919063ffffffff16565b61307190919063ffffffff16565b9050612ebb8387612f1990919063ffffffff16565b9550612ed08286612f1990919063ffffffff16565b9450600c8190806001815401808255809150506001900390600052602060002001600090919091909150555050508080600101915050612de5565b508181935093505050915091565b600080828401905083811015612f97576040517f08c379a000000000000000000000000000000000000000000000000000000000815260040180806020018281038252601b8152602001807f536166654d6174683a206164646974696f6e206f766572666c6f77000000000081525060200191505060405180910390fd5b8091505092915050565b600080831415612fb45760009050613021565b6000828402905082848281612fc557fe5b041461301c576040517f08c379a00000000000000000000000000000000000000000000000000000000081526004018080602001828103825260218152602001806133ae6021913960400191505060405180910390fd5b809150505b92915050565b600061306983836040518060400160405280601a81526020017f536166654d6174683a206469766973696f6e206279207a65726f0000000000008152506130bb565b905092915050565b60006130b383836040518060400160405280601e81526020017f536166654d6174683a207375627472616374696f6e206f766572666c6f770000815250613181565b905092915050565b60008083118290613167576040517f08c379a00000000000000000000000000000000000000000000000000000000081526004018080602001828103825283818151815260200191508051906020019080838360005b8381101561312c578082015181840152602081019050613111565b50505050905090810190601f1680156131595780820380516001836020036101000a031916815260200191505b509250505060405180910390fd5b50600083858161317357fe5b049050809150509392505050565b600083831115829061322e576040517f08c379a00000000000000000000000000000000000000000000000000000000081526004018080602001828103825283818151815260200191508051906020019080838360005b838110156131f35780820151818401526020810190506131d8565b50505050905090810190601f1680156132205780820380516001836020036101000a031916815260200191505b509250505060405180910390fd5b5060008385039050809150509392505050565b828054600181600116156101000203166002900490600052602060002090601f016020900481019282601f1061328257805160ff19168380011785556132b0565b828001600101855582156132b0579182015b828111156132af578251825591602001919060010190613294565b5b5090506132bd91906132e2565b5090565b50805460008255906000526020600020908101906132df91906132e2565b50565b61330491905b808211156133005760008160009055506001016132e8565b5090565b9056fe457363726f77206e6f7420696e2050656e64696e67206f72205061727469616c20737461747573207374617465457363726f77206e6f7420696e204c61756e6368656420737461747573207374617465416464726573732063616c6c696e672063616e6e6f742061646420747275737465642068616e646c657273416d6f756e74206f6620726563697069656e747320616e642076616c75657320646f6e2774206d61746368536166654d6174683a206d756c7469706c69636174696f6e206f766572666c6f77a2646970667358221220cd350a7b16c6e6c5cbc56cc28c9ae0a00b3f54129515a227456ed533e4dfc1d364736f6c63430006020033416464726573732063616c6c696e672063616e6e6f742061646420747275737465642068616e646c657273596f7520646f6e742068617665207468617420616d6f756e74206f66206465706f73697473546869732063616e646964617465206973206e6f7420696e2070656e616c7479206c697374206f66207061727469636970616e7473a26469706673582212209234aeedb9da341c52f2b83bb88ed81ec3ff6e38e4a445c2ad090e655876432464736f6c63430006020033",
  "source": "// SPDX-License-Identifier: MIT\n\npragma solidity 0.6.2;\nimport \"./Escrow.sol\";\nimport \"./Staking.sol\";\n\n\ncontract EscrowFactory is  Staking {\n    // all Escrows will have this duration.\n    uint256 constant STANDARD_DURATION = 8640000;\n\n    uint256 public counter;\n    mapping(address => uint256) public escrowCounters;\n    address public lastEscrow;\n    address public eip20;\n    event Launched(address eip20, address escrow);\n\n    constructor(address _eip20) public {\n        eip20 = _eip20;\n    }\n\n    function createEscrow(address[] memory trustedHandlers) public onlyStakeholder returns (address) {\n        Escrow escrow = new Escrow(eip20, msg.sender, STANDARD_DURATION, trustedHandlers);\n        counter++;\n        escrowCounters[address(escrow)] = counter;\n        lastEscrow = address(escrow);\n        emit Launched(eip20, lastEscrow);\n        return lastEscrow;\n    }\n\n    function isChild(address _child) public view returns (bool) {\n        return escrowCounters[_child] == counter;\n    }\n\n    function hasEscrow(address _address) public view returns (bool) {\n        return escrowCounters[_address] != 0;\n    }\n}",
  "sourcePath": "/Users/dukagjinr/Desktop/hp_staking/blockchain/contracts/EscrowFactory.sol",
  "compiler": {
    "name": "solc",
    "version": "0.6.2+commit.bacdbe57.Emscripten.clang"
  },
  "schemaVersion": "3.4.4",
  "updatedAt": "2022-08-14T13:50:56.164Z",
  "devdoc": {
    "methods": {}
  },
  "userdoc": {
    "methods": {}
  }
}