{
  "contractName": "Staking",
  "abi": [
    {
      "inputs": [],
      "stateMutability": "nonpayable",
      "type": "constructor"
    },
    {
      "inputs": [
        {
          "internalType": "address",
          "name": "",
          "type": "address"
        }
      ],
      "name": "balanceOf",
      "outputs": [
        {
          "internalType": "uint256",
          "name": "",
          "type": "uint256"
        }
      ],
      "stateMutability": "view",
      "type": "function"
    },
    {
      "inputs": [
        {
          "internalType": "uint256",
          "name": "",
          "type": "uint256"
        }
      ],
      "name": "candidateList",
      "outputs": [
        {
          "internalType": "address",
          "name": "",
          "type": "address"
        }
      ],
      "stateMutability": "view",
      "type": "function"
    },
    {
      "inputs": [
        {
          "internalType": "address",
          "name": "",
          "type": "address"
        }
      ],
      "name": "deposits",
      "outputs": [
        {
          "internalType": "uint256",
          "name": "",
          "type": "uint256"
        }
      ],
      "stateMutability": "view",
      "type": "function"
    },
    {
      "inputs": [],
      "name": "owner",
      "outputs": [
        {
          "internalType": "address",
          "name": "",
          "type": "address"
        }
      ],
      "stateMutability": "view",
      "type": "function"
    },
    {
      "inputs": [
        {
          "internalType": "uint256",
          "name": "",
          "type": "uint256"
        }
      ],
      "name": "stakeholders",
      "outputs": [
        {
          "internalType": "address",
          "name": "",
          "type": "address"
        }
      ],
      "stateMutability": "view",
      "type": "function"
    },
    {
      "inputs": [],
      "name": "stakes",
      "outputs": [
        {
          "internalType": "uint256",
          "name": "",
          "type": "uint256"
        }
      ],
      "stateMutability": "view",
      "type": "function"
    },
    {
      "inputs": [
        {
          "internalType": "address",
          "name": "",
          "type": "address"
        }
      ],
      "name": "votesReceived",
      "outputs": [
        {
          "internalType": "uint256",
          "name": "",
          "type": "uint256"
        }
      ],
      "stateMutability": "view",
      "type": "function"
    },
    {
      "inputs": [],
      "name": "staking",
      "outputs": [],
      "stateMutability": "payable",
      "type": "function"
    },
    {
      "inputs": [
        {
          "internalType": "uint256",
          "name": "amount",
          "type": "uint256"
        }
      ],
      "name": "withdraw",
      "outputs": [],
      "stateMutability": "nonpayable",
      "type": "function"
    },
    {
      "inputs": [
        {
          "internalType": "address",
          "name": "candidate",
          "type": "address"
        }
      ],
      "name": "totalVotesFor",
      "outputs": [
        {
          "internalType": "uint256",
          "name": "",
          "type": "uint256"
        }
      ],
      "stateMutability": "view",
      "type": "function"
    },
    {
      "inputs": [
        {
          "internalType": "address",
          "name": "candidate",
          "type": "address"
        }
      ],
      "name": "voteForCandidate",
      "outputs": [],
      "stateMutability": "nonpayable",
      "type": "function"
    },
    {
      "inputs": [
        {
          "internalType": "address",
          "name": "_account",
          "type": "address"
        }
      ],
      "name": "penalty",
      "outputs": [],
      "stateMutability": "nonpayable",
      "type": "function"
    },
    {
      "inputs": [
        {
          "internalType": "address",
          "name": "_account",
          "type": "address"
        }
      ],
      "name": "rewards",
      "outputs": [],
      "stateMutability": "nonpayable",
      "type": "function"
    },
    {
      "inputs": [
        {
          "internalType": "address",
          "name": "_account",
          "type": "address"
        }
      ],
      "name": "currentBalance",
      "outputs": [
        {
          "internalType": "uint256",
          "name": "",
          "type": "uint256"
        }
      ],
      "stateMutability": "view",
      "type": "function"
    }
  ],
  "bytecode": "0x608060405234801561001057600080fd5b50336000806101000a81548173ffffffffffffffffffffffffffffffffffffffff021916908373ffffffffffffffffffffffffffffffffffffffff16021790555061172e806100606000396000f3fe6080604052600436106100dd5760003560e01c806370a082311161007f5780639e546c38116100595780639e546c381461041b578063ad09c7ce14610480578063b13c744b146104ab578063fc7e286d14610526576100dd565b806370a082311461030e5780638da5cb5b1461037357806391b8e8a8146103ca576100dd565b80632e1a7d4d116100bb5780632e1a7d4d146101ff57806330c880c31461023a5780634041ef541461029f5780634cf088d914610304576100dd565b80630700037d146100e2578063163046eb146101335780631d6b8b7214610184575b600080fd5b3480156100ee57600080fd5b506101316004803603602081101561010557600080fd5b81019080803573ffffffffffffffffffffffffffffffffffffffff16906020019092919050505061058b565b005b34801561013f57600080fd5b506101826004803603602081101561015657600080fd5b81019080803573ffffffffffffffffffffffffffffffffffffffff16906020019092919050505061068e565b005b34801561019057600080fd5b506101bd600480360360208110156101a757600080fd5b81019080803590602001909291905050506108d4565b604051808273ffffffffffffffffffffffffffffffffffffffff1673ffffffffffffffffffffffffffffffffffffffff16815260200191505060405180910390f35b34801561020b57600080fd5b506102386004803603602081101561022257600080fd5b8101908080359060200190929190505050610910565b005b34801561024657600080fd5b506102896004803603602081101561025d57600080fd5b81019080803573ffffffffffffffffffffffffffffffffffffffff169060200190929190505050610d5f565b6040518082815260200191505060405180910390f35b3480156102ab57600080fd5b506102ee600480360360208110156102c257600080fd5b81019080803573ffffffffffffffffffffffffffffffffffffffff169060200190929190505050610d77565b6040518082815260200191505060405180910390f35b61030c610dc0565b005b34801561031a57600080fd5b5061035d6004803603602081101561033157600080fd5b81019080803573ffffffffffffffffffffffffffffffffffffffff169060200190929190505050610fa0565b6040518082815260200191505060405180910390f35b34801561037f57600080fd5b50610388610fb8565b604051808273ffffffffffffffffffffffffffffffffffffffff1673ffffffffffffffffffffffffffffffffffffffff16815260200191505060405180910390f35b3480156103d657600080fd5b50610419600480360360208110156103ed57600080fd5b81019080803573ffffffffffffffffffffffffffffffffffffffff169060200190929190505050610fdd565b005b34801561042757600080fd5b5061046a6004803603602081101561043e57600080fd5b81019080803573ffffffffffffffffffffffffffffffffffffffff169060200190929190505050611337565b6040518082815260200191505060405180910390f35b34801561048c57600080fd5b50610495611358565b6040518082815260200191505060405180910390f35b3480156104b757600080fd5b506104e4600480360360208110156104ce57600080fd5b810190808035906020019092919050505061135e565b604051808273ffffffffffffffffffffffffffffffffffffffff1673ffffffffffffffffffffffffffffffffffffffff16815260200191505060405180910390f35b34801561053257600080fd5b506105756004803603602081101561054957600080fd5b81019080803573ffffffffffffffffffffffffffffffffffffffff16906020019092919050505061139a565b6040518082815260200191505060405180910390f35b610594816113b2565b156105ea576040517f08c379a00000000000000000000000000000000000000000000000000000000081526004018080602001828103825260358152602001806116c46035913960400191505060405180910390fd5b60006005905080600260003373ffffffffffffffffffffffffffffffffffffffff1673ffffffffffffffffffffffffffffffffffffffff1681526020019081526020016000206000828254019250508190555080600260003073ffffffffffffffffffffffffffffffffffffffff1673ffffffffffffffffffffffffffffffffffffffff168152602001908152602001600020600082825403925050819055505050565b600080905060008090505b60068054905081101561072357600681815481106106b357fe5b9060005260206000200160009054906101000a900473ffffffffffffffffffffffffffffffffffffffff1673ffffffffffffffffffffffffffffffffffffffff163373ffffffffffffffffffffffffffffffffffffffff16141561071657600191505b8080600101915050610699565b5080610797576040517f08c379a00000000000000000000000000000000000000000000000000000000081526004018080602001828103825260198152602001807f55736572206973206e6f742061205354414b45484f4c4445520000000000000081525060200191505060405180910390fd5b600073ffffffffffffffffffffffffffffffffffffffff163373ffffffffffffffffffffffffffffffffffffffff1614156107d157600080fd5b600073ffffffffffffffffffffffffffffffffffffffff168273ffffffffffffffffffffffffffffffffffffffff16141561080b57600080fd5b600061081683611454565b905080610881576005839080600181540180825580915050600190039060005260206000200160009091909190916101000a81548173ffffffffffffffffffffffffffffffffffffffff021916908373ffffffffffffffffffffffffffffffffffffffff1602179055505b6001600460008573ffffffffffffffffffffffffffffffffffffffff1673ffffffffffffffffffffffffffffffffffffffff16815260200190815260200160002060008282540192505081905550505050565b600681815481106108e157fe5b906000526020600020016000915054906101000a900473ffffffffffffffffffffffffffffffffffffffff1681565b600080905060008090505b6006805490508110156109a5576006818154811061093557fe5b9060005260206000200160009054906101000a900473ffffffffffffffffffffffffffffffffffffffff1673ffffffffffffffffffffffffffffffffffffffff163373ffffffffffffffffffffffffffffffffffffffff16141561099857600191505b808060010191505061091b565b5080610a19576040517f08c379a00000000000000000000000000000000000000000000000000000000081526004018080602001828103825260198152602001807f55736572206973206e6f742061205354414b45484f4c4445520000000000000081525060200191505060405180910390fd5b60008060009054906101000a900473ffffffffffffffffffffffffffffffffffffffff1673ffffffffffffffffffffffffffffffffffffffff168360405180600001905060006040518083038185875af1925050503d8060008114610a9a576040519150601f19603f3d011682016040523d82523d6000602084013e610a9f565b606091505b5050905080610b16576040517f08c379a00000000000000000000000000000000000000000000000000000000081526004018080602001828103825260108152602001807f5472616e73666572206661696c6564210000000000000000000000000000000081525060200191505060405180910390fd5b6000600360003373ffffffffffffffffffffffffffffffffffffffff1673ffffffffffffffffffffffffffffffffffffffff168152602001908152602001600020541415610bcc576040517f08c379a00000000000000000000000000000000000000000000000000000000081526004018080602001828103825260138152602001807f596f752063616e7420776974686472617720300000000000000000000000000081525060200191505060405180910390fd5b82600360003373ffffffffffffffffffffffffffffffffffffffff1673ffffffffffffffffffffffffffffffffffffffff1681526020019081526020016000205411610c63576040517f08c379a000000000000000000000000000000000000000000000000000000000815260040180806020018281038252602581526020018061169f6025913960400191505060405180910390fd5b82600360003373ffffffffffffffffffffffffffffffffffffffff1673ffffffffffffffffffffffffffffffffffffffff168152602001908152602001600020600082825403925050819055508260016000828254039250508190555082600260003073ffffffffffffffffffffffffffffffffffffffff1673ffffffffffffffffffffffffffffffffffffffff1681526020019081526020016000206000828254039250508190555082600260003373ffffffffffffffffffffffffffffffffffffffff1673ffffffffffffffffffffffffffffffffffffffff16815260200190815260200160002060008282540192505081905550505050565b60046020528060005260406000206000915090505481565b6000600460008373ffffffffffffffffffffffffffffffffffffffff1673ffffffffffffffffffffffffffffffffffffffff168152602001908152602001600020549050919050565b60003490506000339050600073ffffffffffffffffffffffffffffffffffffffff163373ffffffffffffffffffffffffffffffffffffffff161415610e0457600080fd5b6001341015610e7b576040517f08c379a000000000000000000000000000000000000000000000000000000000815260040180806020018281038252601b8152602001807f596f752063616e207374616b652031206f72206d6f726520576569000000000081525060200191505060405180910390fd5b8160016000828254019250508190555081600260003073ffffffffffffffffffffffffffffffffffffffff1673ffffffffffffffffffffffffffffffffffffffff1681526020019081526020016000206000828254019250508190555081600360003373ffffffffffffffffffffffffffffffffffffffff1673ffffffffffffffffffffffffffffffffffffffff168152602001908152602001600020600082825401925050819055506000610f30826114f4565b905080610f9b576006829080600181540180825580915050600190039060005260206000200160009091909190916101000a81548173ffffffffffffffffffffffffffffffffffffffff021916908373ffffffffffffffffffffffffffffffffffffffff1602179055505b505050565b60026020528060005260406000206000915090505481565b6000809054906101000a900473ffffffffffffffffffffffffffffffffffffffff1681565b600080905060008090505b600680549050811015611072576006818154811061100257fe5b9060005260206000200160009054906101000a900473ffffffffffffffffffffffffffffffffffffffff1673ffffffffffffffffffffffffffffffffffffffff163373ffffffffffffffffffffffffffffffffffffffff16141561106557600191505b8080600101915050610fe8565b50806110e6576040517f08c379a00000000000000000000000000000000000000000000000000000000081526004018080602001828103825260198152602001807f55736572206973206e6f742061205354414b45484f4c4445520000000000000081525060200191505060405180910390fd5b6110ef826113b2565b611144576040517f08c379a00000000000000000000000000000000000000000000000000000000081526004018080602001828103825260358152602001806116c46035913960400191505060405180910390fd5b600073ffffffffffffffffffffffffffffffffffffffff163373ffffffffffffffffffffffffffffffffffffffff16141561117e57600080fd5b600061118983611337565b14156111fd576040517f08c379a000000000000000000000000000000000000000000000000000000000815260040180806020018281038252601b8152602001807f54686973206163636f756e7420686173206e6f2062616c616e6365000000000081525060200191505060405180910390fd5b6000600a905061125581600360008673ffffffffffffffffffffffffffffffffffffffff1673ffffffffffffffffffffffffffffffffffffffff1681526020019081526020016000205461159490919063ffffffff16565b600360008573ffffffffffffffffffffffffffffffffffffffff1673ffffffffffffffffffffffffffffffffffffffff1681526020019081526020016000208190555080600260003373ffffffffffffffffffffffffffffffffffffffff1673ffffffffffffffffffffffffffffffffffffffff1681526020019081526020016000206000828254039250508190555080600260003073ffffffffffffffffffffffffffffffffffffffff1673ffffffffffffffffffffffffffffffffffffffff16815260200190815260200160002060008282540192505081905550505050565b60008173ffffffffffffffffffffffffffffffffffffffff16319050919050565b60015481565b6005818154811061136b57fe5b906000526020600020016000915054906101000a900473ffffffffffffffffffffffffffffffffffffffff1681565b60036020528060005260406000206000915090505481565b600080600090505b600580549050811015611449578273ffffffffffffffffffffffffffffffffffffffff16600582815481106113eb57fe5b9060005260206000200160009054906101000a900473ffffffffffffffffffffffffffffffffffffffff1673ffffffffffffffffffffffffffffffffffffffff16141561143c57600191505061144f565b80806001019150506113ba565b50600090505b919050565b600080600090505b6005805490508110156114e9576005818154811061147657fe5b9060005260206000200160009054906101000a900473ffffffffffffffffffffffffffffffffffffffff1673ffffffffffffffffffffffffffffffffffffffff168373ffffffffffffffffffffffffffffffffffffffff1614156114de5760019150506114ef565b60018101905061145c565b50600090505b919050565b600080600090505b600680549050811015611589576006818154811061151657fe5b9060005260206000200160009054906101000a900473ffffffffffffffffffffffffffffffffffffffff1673ffffffffffffffffffffffffffffffffffffffff168373ffffffffffffffffffffffffffffffffffffffff16141561157e57600191505061158f565b6001810190506114fc565b50600090505b919050565b60006115d683836040518060400160405280601e81526020017f536166654d6174683a207375627472616374696f6e206f766572666c6f7700008152506115de565b905092915050565b600083831115829061168b576040517f08c379a00000000000000000000000000000000000000000000000000000000081526004018080602001828103825283818151815260200191508051906020019080838360005b83811015611650578082015181840152602081019050611635565b50505050905090810190601f16801561167d5780820380516001836020036101000a031916815260200191505b509250505060405180910390fd5b506000838503905080915050939250505056fe596f7520646f6e742068617665207468617420616d6f756e74206f66206465706f73697473546869732063616e646964617465206973206e6f7420696e2070656e616c7479206c697374206f66207061727469636970616e7473a26469706673582212209a415c23ae07b3cdf0174f562403e91de8f3a8cc5aa270c2f32e71803aac8b2564736f6c63430006020033",
  "source": "// SPDX-License-Identifier: MIT\n\npragma solidity 0.6.2;\n\nimport \"./SafeMath.sol\";\n\ncontract Staking {\n    using SafeMath for uint256;\n    //Contract owner\n    address public owner;\n\n    //Total staked\n    uint public stakes;\n    \n    // User address => staked amount\n    mapping(address => uint) public balanceOf;\n    // Map Users contribution to the stake\n    mapping(address => uint) public deposits;\n    \n\n    mapping (address => uint256) public votesReceived;\n    address[] public candidateList;\n\n    //Stakeholders list \n    address[] public stakeholders;\n\n    constructor() public{\n        owner = msg.sender;\n    }\n    \n    // mapping(address => uint) balances; \n\n    //Everyone can become stakeholder/validator by staking more than 1 Wei \n    function staking() external payable  {\n        uint _amount = msg.value;\n        address _account = msg.sender;\n        \n        require(msg.sender != address(0));\n        require(msg.value >= 1 wei, \"You can stake 1 or more Wei\"); \n        // require(msg.value != 0);\n        \n        //Total Amount of Ether staked (to keep track) \n        stakes += _amount;\n        //add the amount staked to the contract balance \n        balanceOf[address(this)] +=  _amount ;\n        //Keep track each staking that a stakeholder made\n        deposits[msg.sender] += _amount;\n          \n        //Check if this person is already a stakeholder and add them to the list\n        (bool _isStakeholder ) = isStakeholder(_account);\n            if (!_isStakeholder) stakeholders.push(_account);\n       \n  }\n   \n    function withdraw(uint amount) external onlyStakeholder{\n        (bool success,)=owner.call{value:amount}(\"\");\n        require(success, \"Transfer failed!\");\n        require(deposits[msg.sender] != 0, \"You cant withdraw 0\");\n        require(deposits[msg.sender] > amount, \"You dont have that amount of deposits\");\n\n        deposits[msg.sender] -= amount;\n        stakes -= amount;\n        balanceOf[address(this)] -= amount;\n        balanceOf[msg.sender] += amount; \n        //DEPOSITS NEEDS TO BE Subscracted.\n    }\n\n    // This function returns the total votes a candidate has received so far\n    function totalVotesFor(address candidate) view public returns (uint256) {\n        // require(validCandidate(candidate));\n        return votesReceived[candidate];\n    }\n\n    // This function increments the vote count for the specified candidate. This\n    // is equivalent to casting a vote\n    function voteForCandidate(address candidate) public  onlyStakeholder{\n        require(msg.sender != address(0));\n        require(candidate != address(0));\n        \n        //TODO: I dont need this check\n        (bool _isCandidate ) = isCandidate(candidate);\n        if (!_isCandidate) candidateList.push(candidate);\n        votesReceived[candidate] += 1;\n    }\n  \n    function penalty(address _account  ) public  onlyStakeholder {\n        require(validCandidate(_account), \"This candidate is not in penalty list of participants\");\n        require(msg.sender != address(0));\n        require(currentBalance(_account) != 0, \"This account has no balance\");\n        \n        uint amountSlashed = 10 wei; \n        deposits[_account] = deposits[_account].sub(amountSlashed); \n        balanceOf[msg.sender] -= amountSlashed; \n        //Get the tokens from  bad participant penalty and add it to the contract staking pool \n        balanceOf[address(this)] += amountSlashed;\n    }\n\n    function rewards(address _account) public  {\n        //Check if this participant is in the list of bad actors;\n        require(!validCandidate(_account), \"This candidate is not in penalty list of participants\");\n        uint rewardAmount = 5 wei;\n        //this user's balance should increase by 5 as rewards stated  \n        balanceOf[msg.sender] += rewardAmount; \n        // the Contract which serves as staking pool should have 5 less amount of tokens;\n        balanceOf[address(this)] -= rewardAmount;\n    }\n\n\n    //HELPER FUNCTIONS\n\n    function currentBalance(address _account) public view returns(uint) {\n        return _account.balance;\n    } \n\n\n    modifier onlyStakeholder {\n        bool found = false;\n        for (uint256 s = 0; s < stakeholders.length; s++) {\n            if (msg.sender == stakeholders[s]){\n                found = true;\n            }\n        }\n        require(found, \"User is not a STAKEHOLDER\");\n        _;\n    }\n\n\n    // function getBalance(address _stakeholder) public view returns (uint){\n    //     return balanceOf[_stakeholder];\n    // }\n\n    function isStakeholder(address _address) internal view returns(bool)\n        {\n            for (uint256 s = 0; s < stakeholders.length; s += 1){\n                if (_address == stakeholders[s]) return (true);\n            }\n            return (false);\n        }\n\n    function isCandidate(address _address) internal view returns(bool)\n        {\n            for (uint256 s = 0; s < candidateList.length; s += 1){\n                if (_address == candidateList[s]) return (true);\n            }\n            return (false);\n        }\n\n    function validCandidate(address candidate) internal view returns (bool) {\n        for(uint i = 0; i < candidateList.length; i++) {\n        if (candidateList[i] == candidate) {\n            return true;\n        }\n        }\n        return false;\n\n}\n}",
  "sourcePath": "/Users/dukagjinr/Desktop/hp_staking/blockchain/contracts/Staking.sol",
  "compiler": {
    "name": "solc",
    "version": "0.6.2+commit.bacdbe57.Emscripten.clang"
  },
  "schemaVersion": "3.4.4",
  "updatedAt": "2022-08-14T13:50:56.176Z",
  "devdoc": {
    "methods": {}
  },
  "userdoc": {
    "methods": {}
  }
}